{
  "_format": "hh-sol-artifact-1",
  "contractName": "GovernanceSystem",
  "sourceName": "contracts/GovernanceSystem.sol",
  "abi": [
    {
      "inputs": [
        {
          "internalType": "address",
          "name": "_reputationSystem",
          "type": "address"
        },
        {
          "internalType": "address",
          "name": "_socialPosts",
          "type": "address"
        }
      ],
      "stateMutability": "nonpayable",
      "type": "constructor"
    },
    {
      "inputs": [
        {
          "internalType": "address",
          "name": "owner",
          "type": "address"
        }
      ],
      "name": "OwnableInvalidOwner",
      "type": "error"
    },
    {
      "inputs": [
        {
          "internalType": "address",
          "name": "account",
          "type": "address"
        }
      ],
      "name": "OwnableUnauthorizedAccount",
      "type": "error"
    },
    {
      "anonymous": false,
      "inputs": [
        {
          "indexed": true,
          "internalType": "uint256",
          "name": "appealId",
          "type": "uint256"
        },
        {
          "indexed": true,
          "internalType": "uint256",
          "name": "postId",
          "type": "uint256"
        },
        {
          "indexed": true,
          "internalType": "address",
          "name": "appellant",
          "type": "address"
        }
      ],
      "name": "AppealCreated",
      "type": "event"
    },
    {
      "anonymous": false,
      "inputs": [
        {
          "indexed": true,
          "internalType": "uint256",
          "name": "appealId",
          "type": "uint256"
        },
        {
          "indexed": false,
          "internalType": "bool",
          "name": "upheld",
          "type": "bool"
        },
        {
          "indexed": false,
          "internalType": "uint256",
          "name": "totalVotes",
          "type": "uint256"
        }
      ],
      "name": "AppealResolved",
      "type": "event"
    },
    {
      "anonymous": false,
      "inputs": [
        {
          "indexed": true,
          "internalType": "address",
          "name": "previousOwner",
          "type": "address"
        },
        {
          "indexed": true,
          "internalType": "address",
          "name": "newOwner",
          "type": "address"
        }
      ],
      "name": "OwnershipTransferred",
      "type": "event"
    },
    {
      "anonymous": false,
      "inputs": [
        {
          "indexed": true,
          "internalType": "uint256",
          "name": "postId",
          "type": "uint256"
        },
        {
          "indexed": true,
          "internalType": "uint256",
          "name": "appealId",
          "type": "uint256"
        }
      ],
      "name": "PostUnflagged",
      "type": "event"
    },
    {
      "anonymous": false,
      "inputs": [
        {
          "indexed": true,
          "internalType": "uint256",
          "name": "appealId",
          "type": "uint256"
        },
        {
          "indexed": true,
          "internalType": "address",
          "name": "voter",
          "type": "address"
        },
        {
          "indexed": false,
          "internalType": "bool",
          "name": "vote",
          "type": "bool"
        },
        {
          "indexed": false,
          "internalType": "uint256",
          "name": "weight",
          "type": "uint256"
        }
      ],
      "name": "VoteCast",
      "type": "event"
    },
    {
      "inputs": [],
      "name": "appealCounter",
      "outputs": [
        {
          "internalType": "uint256",
          "name": "",
          "type": "uint256"
        }
      ],
      "stateMutability": "view",
      "type": "function"
    },
    {
      "inputs": [
        {
          "internalType": "uint256",
          "name": "",
          "type": "uint256"
        }
      ],
      "name": "appeals",
      "outputs": [
        {
          "internalType": "uint256",
          "name": "postId",
          "type": "uint256"
        },
        {
          "internalType": "address",
          "name": "appellant",
          "type": "address"
        },
        {
          "internalType": "string",
          "name": "reason",
          "type": "string"
        },
        {
          "internalType": "uint256",
          "name": "createdAt",
          "type": "uint256"
        },
        {
          "internalType": "uint256",
          "name": "votingEnds",
          "type": "uint256"
        },
        {
          "internalType": "bool",
          "name": "resolved",
          "type": "bool"
        },
        {
          "internalType": "bool",
          "name": "upheld",
          "type": "bool"
        },
        {
          "internalType": "uint256",
          "name": "totalVotes",
          "type": "uint256"
        },
        {
          "internalType": "uint256",
          "name": "yesVotes",
          "type": "uint256"
        },
        {
          "internalType": "uint256",
          "name": "noVotes",
          "type": "uint256"
        }
      ],
      "stateMutability": "view",
      "type": "function"
    },
    {
      "inputs": [
        {
          "internalType": "uint256",
          "name": "reputation",
          "type": "uint256"
        }
      ],
      "name": "calculateVoteWeight",
      "outputs": [
        {
          "internalType": "uint256",
          "name": "",
          "type": "uint256"
        }
      ],
      "stateMutability": "pure",
      "type": "function"
    },
    {
      "inputs": [
        {
          "internalType": "address",
          "name": "voter",
          "type": "address"
        },
        {
          "internalType": "uint256",
          "name": "appealId",
          "type": "uint256"
        }
      ],
      "name": "canVote",
      "outputs": [
        {
          "internalType": "bool",
          "name": "",
          "type": "bool"
        }
      ],
      "stateMutability": "view",
      "type": "function"
    },
    {
      "inputs": [
        {
          "internalType": "uint256",
          "name": "postId",
          "type": "uint256"
        },
        {
          "internalType": "string",
          "name": "reason",
          "type": "string"
        }
      ],
      "name": "createAppeal",
      "outputs": [],
      "stateMutability": "nonpayable",
      "type": "function"
    },
    {
      "inputs": [
        {
          "internalType": "uint256",
          "name": "appealId",
          "type": "uint256"
        }
      ],
      "name": "getAppeal",
      "outputs": [
        {
          "components": [
            {
              "internalType": "uint256",
              "name": "postId",
              "type": "uint256"
            },
            {
              "internalType": "address",
              "name": "appellant",
              "type": "address"
            },
            {
              "internalType": "string",
              "name": "reason",
              "type": "string"
            },
            {
              "internalType": "uint256",
              "name": "createdAt",
              "type": "uint256"
            },
            {
              "internalType": "uint256",
              "name": "votingEnds",
              "type": "uint256"
            },
            {
              "internalType": "bool",
              "name": "resolved",
              "type": "bool"
            },
            {
              "internalType": "bool",
              "name": "upheld",
              "type": "bool"
            },
            {
              "internalType": "uint256",
              "name": "totalVotes",
              "type": "uint256"
            },
            {
              "internalType": "uint256",
              "name": "yesVotes",
              "type": "uint256"
            },
            {
              "internalType": "uint256",
              "name": "noVotes",
              "type": "uint256"
            }
          ],
          "internalType": "struct GovernanceSystem.Appeal",
          "name": "",
          "type": "tuple"
        }
      ],
      "stateMutability": "view",
      "type": "function"
    },
    {
      "inputs": [
        {
          "internalType": "uint256",
          "name": "appealId",
          "type": "uint256"
        }
      ],
      "name": "getAppealStatus",
      "outputs": [
        {
          "internalType": "bool",
          "name": "isActive",
          "type": "bool"
        },
        {
          "internalType": "bool",
          "name": "canResolve",
          "type": "bool"
        },
        {
          "internalType": "uint256",
          "name": "timeLeft",
          "type": "uint256"
        },
        {
          "internalType": "uint256",
          "name": "yesPercentage",
          "type": "uint256"
        },
        {
          "internalType": "uint256",
          "name": "noPercentage",
          "type": "uint256"
        },
        {
          "internalType": "bool",
          "name": "quorumMet",
          "type": "bool"
        }
      ],
      "stateMutability": "view",
      "type": "function"
    },
    {
      "inputs": [],
      "name": "getEligibleVoterCount",
      "outputs": [
        {
          "internalType": "uint256",
          "name": "",
          "type": "uint256"
        }
      ],
      "stateMutability": "view",
      "type": "function"
    },
    {
      "inputs": [
        {
          "internalType": "uint256",
          "name": "appealId",
          "type": "uint256"
        },
        {
          "internalType": "address",
          "name": "voter",
          "type": "address"
        }
      ],
      "name": "getVote",
      "outputs": [
        {
          "components": [
            {
              "internalType": "bool",
              "name": "hasVoted",
              "type": "bool"
            },
            {
              "internalType": "bool",
              "name": "vote",
              "type": "bool"
            },
            {
              "internalType": "uint256",
              "name": "weight",
              "type": "uint256"
            }
          ],
          "internalType": "struct GovernanceSystem.Vote",
          "name": "",
          "type": "tuple"
        }
      ],
      "stateMutability": "view",
      "type": "function"
    },
    {
      "inputs": [],
      "name": "minReputationToVote",
      "outputs": [
        {
          "internalType": "uint256",
          "name": "",
          "type": "uint256"
        }
      ],
      "stateMutability": "view",
      "type": "function"
    },
    {
      "inputs": [],
      "name": "owner",
      "outputs": [
        {
          "internalType": "address",
          "name": "",
          "type": "address"
        }
      ],
      "stateMutability": "view",
      "type": "function"
    },
    {
      "inputs": [
        {
          "internalType": "uint256",
          "name": "",
          "type": "uint256"
        }
      ],
      "name": "postAppealed",
      "outputs": [
        {
          "internalType": "bool",
          "name": "",
          "type": "bool"
        }
      ],
      "stateMutability": "view",
      "type": "function"
    },
    {
      "inputs": [],
      "name": "quorumPercentage",
      "outputs": [
        {
          "internalType": "uint256",
          "name": "",
          "type": "uint256"
        }
      ],
      "stateMutability": "view",
      "type": "function"
    },
    {
      "inputs": [],
      "name": "renounceOwnership",
      "outputs": [],
      "stateMutability": "nonpayable",
      "type": "function"
    },
    {
      "inputs": [],
      "name": "reputationSystem",
      "outputs": [
        {
          "internalType": "contract ReputationSystem",
          "name": "",
          "type": "address"
        }
      ],
      "stateMutability": "view",
      "type": "function"
    },
    {
      "inputs": [
        {
          "internalType": "uint256",
          "name": "appealId",
          "type": "uint256"
        }
      ],
      "name": "resolveAppeal",
      "outputs": [],
      "stateMutability": "nonpayable",
      "type": "function"
    },
    {
      "inputs": [
        {
          "internalType": "uint256",
          "name": "_minReputation",
          "type": "uint256"
        }
      ],
      "name": "setMinReputationToVote",
      "outputs": [],
      "stateMutability": "nonpayable",
      "type": "function"
    },
    {
      "inputs": [
        {
          "internalType": "uint256",
          "name": "_quorumPercentage",
          "type": "uint256"
        }
      ],
      "name": "setQuorumPercentage",
      "outputs": [],
      "stateMutability": "nonpayable",
      "type": "function"
    },
    {
      "inputs": [
        {
          "internalType": "uint256",
          "name": "_votingPeriod",
          "type": "uint256"
        }
      ],
      "name": "setVotingPeriod",
      "outputs": [],
      "stateMutability": "nonpayable",
      "type": "function"
    },
    {
      "inputs": [],
      "name": "socialPosts",
      "outputs": [
        {
          "internalType": "contract ISocialPosts",
          "name": "",
          "type": "address"
        }
      ],
      "stateMutability": "view",
      "type": "function"
    },
    {
      "inputs": [
        {
          "internalType": "address",
          "name": "newOwner",
          "type": "address"
        }
      ],
      "name": "transferOwnership",
      "outputs": [],
      "stateMutability": "nonpayable",
      "type": "function"
    },
    {
      "inputs": [
        {
          "internalType": "uint256",
          "name": "appealId",
          "type": "uint256"
        },
        {
          "internalType": "bool",
          "name": "voteChoice",
          "type": "bool"
        }
      ],
      "name": "vote",
      "outputs": [],
      "stateMutability": "nonpayable",
      "type": "function"
    },
    {
      "inputs": [
        {
          "internalType": "uint256",
          "name": "",
          "type": "uint256"
        },
        {
          "internalType": "address",
          "name": "",
          "type": "address"
        }
      ],
      "name": "votes",
      "outputs": [
        {
          "internalType": "bool",
          "name": "hasVoted",
          "type": "bool"
        },
        {
          "internalType": "bool",
          "name": "vote",
          "type": "bool"
        },
        {
          "internalType": "uint256",
          "name": "weight",
          "type": "uint256"
        }
      ],
      "stateMutability": "view",
      "type": "function"
    },
    {
      "inputs": [],
      "name": "votingPeriod",
      "outputs": [
        {
          "internalType": "uint256",
          "name": "",
          "type": "uint256"
        }
      ],
      "stateMutability": "view",
      "type": "function"
    }
  ],
  "bytecode": "0x60806040526203f480600755601960085560146009553480156200002257600080fd5b5060405162001bd138038062001bd1833981016040819052620000459162000117565b33806200006c57604051631e4fbdf760e01b81526000600482015260240160405180910390fd5b6200007781620000aa565b50600180546001600160a01b039384166001600160a01b031991821617909155600280549290931691161790556200014f565b600080546001600160a01b038381166001600160a01b0319831681178455604051919092169283917f8be0079c531659141344cd1fd0a4f28419497f9722a3daafe3b4186f6b6457e09190a35050565b80516001600160a01b03811681146200011257600080fd5b919050565b600080604083850312156200012b57600080fd5b6200013683620000fa565b91506200014660208401620000fa565b90509250929050565b611a72806200015f6000396000f3fe608060405234801561001057600080fd5b50600436106101585760003560e01c80638550ea2a116100c3578063d0fca8661161007c578063d0fca86614610396578063d23254b4146103a9578063e9deb56614610405578063ea0217cf14610428578063f2fde38b1461043b578063fb237d411461044e57600080fd5b80638550ea2a1461023f5780638da5cb5b1461025f578063ac4e9d9214610270578063acff8687146102b4578063bc3f931f146102dd578063c9d27afe1461038357600080fd5b8063546c9fbc11610115578063546c9fbc146101d65780636587eda1146101e9578063715018a61461021457806379ffd32c1461021c5780637f84b05b14610225578063809429101461022c57600080fd5b806302a251a31461015d578063054e1410146101795780630a6387fd1461018257806319eb8d481461019757806332f6a1dc146101ba5780634fa76ec9146101cd575b600080fd5b61016660075481565b6040519081526020015b60405180910390f35b61016660085481565b6101956101903660046114b6565b610461565b005b6101aa6101a5366004611555565b610787565b6040519015158152602001610170565b6101956101c8366004611581565b61097f565b61016660095481565b6101666101e4366004611581565b6109d2565b6001546101fc906001600160a01b031681565b6040516001600160a01b039091168152602001610170565b610195610a84565b61016660065481565b6064610166565b61019561023a366004611581565b610a98565b61025261024d366004611581565b610aa5565b60405161017091906115ea565b6000546001600160a01b03166101fc565b61028361027e366004611581565b610c2d565b60408051961515875294151560208701529385019290925260608401526080830152151560a082015260c001610170565b6102c76102c2366004611581565b610e2d565b6040516101709a99989796959493929190611693565b61035d6102eb3660046116f9565b60408051606081018252600080825260208201819052918101919091525060009182526004602090815260408084206001600160a01b03939093168452918152918190208151606081018352815460ff8082161515835261010090910416151593810193909352600101549082015290565b604080518251151581526020808401511515908201529181015190820152606001610170565b610195610391366004611737565b610f16565b6002546101fc906001600160a01b031681565b6103e86103b73660046116f9565b60046020908152600092835260408084209091529082529020805460019091015460ff808316926101009004169083565b604080519315158452911515602084015290820152606001610170565b6101aa610413366004611581565b60056020526000908152604090205460ff1681565b610195610436366004611581565b6111e6565b61019561044936600461175c565b6111f3565b61019561045c366004611581565b611231565b60025460405163101cc70960e21b81526004810184905260009182916001600160a01b03909116906340731c2490602401600060405180830381865afa1580156104af573d6000803e3d6000fd5b505050506040513d6000823e601f3d908101601f191682016040526104d79190810190611789565b505050935050925050806105285760405162461bcd60e51b8152602060048201526013602482015272141bdcdd081a5cc81b9bdd08199b1859d9d959606a1b60448201526064015b60405180910390fd5b6001600160a01b03821633146105805760405162461bcd60e51b815260206004820152601b60248201527f4f6e6c7920706f737420617574686f722063616e2061707065616c0000000000604482015260640161051f565b60008481526005602052604090205460ff16156105d75760405162461bcd60e51b8152602060048201526015602482015274141bdcdd08185b1c9958591e48185c1c19585b1959605a1b604482015260640161051f565b600083511161061a5760405162461bcd60e51b815260206004820152600f60248201526e1499585cdbdb881c995c5d5a5c9959608a1b604482015260640161051f565b6006805490600061062a83611862565b9091555050600654604080516101408101825286815233602082015290810185905242606082018190526007546080830191610666919061187b565b8152600060208083018290526040808401839052606084018390526080840183905260a0909301829052848252600381529082902083518155908301516001820180546001600160a01b0319166001600160a01b039092169190911790559082015160028201906106d79082611917565b50606082015160038201556080820151600482015560a08201516005808301805460c086015161ffff1990911693151561ff00191693909317610100931515840217905560e084015160068401559083015160078301556101209092015160089091015560008681526020919091526040808220805460ff19166001179055513391879184917fc086dff9c929df1e808576931ac384a604df56d411ccb1403e6357f018c75aa091a45050505050565b60008181526003602090815260408083208151610140810183528154815260018201546001600160a01b031693810193909352600281018054859493840191906107d09061188e565b80601f01602080910402602001604051908101604052809291908181526020018280546107fc9061188e565b80156108495780601f1061081e57610100808354040283529160200191610849565b820191906000526020600020905b81548152906001019060200180831161082c57829003601f168201915b50505091835250506003820154602082015260048201546040820152600582015460ff808216151560608401526101009091041615156080820152600682015460a080830191909152600783015460c083015260089092015460e090910152810151909150806108bc5750806080015142115b156108cb576000915050610979565b60008381526004602090815260408083206001600160a01b038816845290915290205460ff1615610900576000915050610979565b600154604051631d699f5760e21b81526001600160a01b03868116600483015260009216906375a67d5c90602401602060405180830381865afa15801561094b573d6000803e3d6000fd5b505050506040513d601f19601f8201168201806040525081019061096f91906119d7565b6008541115925050505b92915050565b6109876113ca565b60648111156109cd5760405162461bcd60e51b8152602060048201526012602482015271496e76616c69642070657263656e7461676560701b604482015260640161051f565b600955565b6000816000036109e457506000919050565b6001606483106109f65750600a610a72565b60518310610a0657506009610a72565b60408310610a1657506008610a72565b60318310610a2657506007610a72565b60248310610a3657506006610a72565b60198310610a4657506005610a72565b60108310610a5657506004610a72565b60098310610a6657506003610a72565b60048310610a72575060025b610a7d81600a6119f0565b9392505050565b610a8c6113ca565b610a9660006113f7565b565b610aa06113ca565b600855565b610b086040518061014001604052806000815260200160006001600160a01b031681526020016060815260200160008152602001600081526020016000151581526020016000151581526020016000815260200160008152602001600081525090565b6000828152600360209081526040918290208251610140810184528154815260018201546001600160a01b0316928101929092526002810180549293919291840191610b539061188e565b80601f0160208091040260200160405190810160405280929190818152602001828054610b7f9061188e565b8015610bcc5780601f10610ba157610100808354040283529160200191610bcc565b820191906000526020600020905b815481529060010190602001808311610baf57829003601f168201915b50505091835250506003820154602082015260048201546040820152600582015460ff808216151560608401526101009091041615156080820152600682015460a0820152600782015460c082015260089091015460e09091015292915050565b60008181526003602090815260408083208151610140810183528154815260018201546001600160a01b0316938101939093526002810180548594859485948594859485949384019190610c809061188e565b80601f0160208091040260200160405190810160405280929190818152602001828054610cac9061188e565b8015610cf95780601f10610cce57610100808354040283529160200191610cf9565b820191906000526020600020905b815481529060010190602001808311610cdc57829003601f168201915b50505091835250506003820154602082015260048201546040820152600582015460ff808216151560608401526101009091041615156080820152600682015460a080830191909152600783015460c083015260089092015460e090910152810151909150158015610d6f575080608001514211155b96508060a00151158015610d865750806080015142115b955080608001514211610da657428160800151610da39190611a07565b94505b60e081015115610df65760e0810151610100820151610dc69060646119f0565b610dd09190611a1a565b93508060e001518161012001516064610de991906119f0565b610df39190611a1a565b92505b6009546064906000908290610e0b90826119f0565b610e159190611a1a565b9050808360e001511015935050505091939550919395565b60036020526000908152604090208054600182015460028301805492936001600160a01b0390921692610e5f9061188e565b80601f0160208091040260200160405190810160405280929190818152602001828054610e8b9061188e565b8015610ed85780601f10610ead57610100808354040283529160200191610ed8565b820191906000526020600020905b815481529060010190602001808311610ebb57829003601f168201915b50505050600383015460048401546005850154600686015460078701546008909701549596939592945060ff8083169461010090930416929091908a565b6000828152600360205260409020600581015460ff1615610f735760405162461bcd60e51b8152602060048201526017602482015276105c1c19585b08185b1c9958591e481c995cdbdb1d9959604a1b604482015260640161051f565b8060040154421115610fbd5760405162461bcd60e51b8152602060048201526013602482015272159bdd1a5b99c81c195c9a5bd908195b991959606a1b604482015260640161051f565b600083815260046020908152604080832033845290915290205460ff16156110175760405162461bcd60e51b815260206004820152600d60248201526c105b1c9958591e481d9bdd1959609a1b604482015260640161051f565b600154604051631d699f5760e21b81523360048201526000916001600160a01b0316906375a67d5c90602401602060405180830381865afa158015611060573d6000803e3d6000fd5b505050506040513d601f19601f8201168201806040525081019061108491906119d7565b90506008548110156110d85760405162461bcd60e51b815260206004820152601f60248201527f496e73756666696369656e742072657075746174696f6e20746f20766f746500604482015260640161051f565b60006110e3826109d2565b604080516060810182526001808252871515602080840191825283850186815260008c81526004835286812033825290925294812093518454925161ffff1990931690151561ff00191617610100921515929092029190911783559251910155600685018054929350839290919061115c90849061187b565b90915550508315611186578083600701600082825461117b919061187b565b909155506111a09050565b8083600801600082825461119a919061187b565b90915550505b60408051851515815260208101839052339187917fcbdf6214089cba887ecbf35a0b6a734589959c9763342c756bb2a80ca2bc9f6e910160405180910390a35050505050565b6111ee6113ca565b600755565b6111fb6113ca565b6001600160a01b03811661122557604051631e4fbdf760e01b81526000600482015260240161051f565b61122e816113f7565b50565b6000818152600360205260409020600581015460ff161561128e5760405162461bcd60e51b8152602060048201526017602482015276105c1c19585b08185b1c9958591e481c995cdbdb1d9959604a1b604482015260640161051f565b806004015442116112e15760405162461bcd60e51b815260206004820152601760248201527f566f74696e6720706572696f64206e6f7420656e646564000000000000000000604482015260640161051f565b60095460649060009082906112f690826119f0565b6113009190611a1a565b90506000818460060154101590506000818015611324575084600801548560070154115b600586018054821580156101000261ffff19909216919091176001179091559091506113795784546040518791907fbad6670e0dd08dcd782c929c35c75ad0755c3493a531f9156b0b2957b1298ce990600090a35b857f2387d97bad3a70669a564e55c0e07d00974270cf79fa37c5db58d00ee488c1a48287600601546040516113ba9291909115158252602082015260400190565b60405180910390a2505050505050565b6000546001600160a01b03163314610a965760405163118cdaa760e01b815233600482015260240161051f565b600080546001600160a01b038381166001600160a01b0319831681178455604051919092169283917f8be0079c531659141344cd1fd0a4f28419497f9722a3daafe3b4186f6b6457e09190a35050565b634e487b7160e01b600052604160045260246000fd5b604051601f8201601f1916810167ffffffffffffffff8111828210171561148657611486611447565b604052919050565b600067ffffffffffffffff8211156114a8576114a8611447565b50601f01601f191660200190565b600080604083850312156114c957600080fd5b82359150602083013567ffffffffffffffff8111156114e757600080fd5b8301601f810185136114f857600080fd5b803561150b6115068261148e565b61145d565b81815286602083850101111561152057600080fd5b816020840160208301376000602083830101528093505050509250929050565b6001600160a01b038116811461122e57600080fd5b6000806040838503121561156857600080fd5b823561157381611540565b946020939093013593505050565b60006020828403121561159357600080fd5b5035919050565b60005b838110156115b557818101518382015260200161159d565b50506000910152565b600081518084526115d681602086016020860161159a565b601f01601f19169290920160200192915050565b60208152815160208201526000602083015161161160408401826001600160a01b03169052565b50604083015161014080606085015261162e6101608501836115be565b915060608501516080850152608085015160a085015260a085015161165760c086018215159052565b5060c085015180151560e08601525060e08501516101008581019190915285015161012080860191909152909401519390920192909252919050565b8a81526001600160a01b038a166020820152610140604082018190526000906116be8382018c6115be565b606084019a909a525050608081019690965293151560a086015291151560c085015260e0840152610100830152610120909101529392505050565b6000806040838503121561170c57600080fd5b82359150602083013561171e81611540565b809150509250929050565b801515811461122e57600080fd5b6000806040838503121561174a57600080fd5b82359150602083013561171e81611729565b60006020828403121561176e57600080fd5b8135610a7d81611540565b805161178481611729565b919050565b600080600080600080600060e0888a0312156117a457600080fd5b8751965060208801516117b681611540565b604089015190965067ffffffffffffffff8111156117d357600080fd5b8801601f81018a136117e457600080fd5b80516117f26115068261148e565b8181528b602083850101111561180757600080fd5b61181882602083016020860161159a565b965061182991505060608901611779565b93506080880151925060a0880151915060c0880151905092959891949750929550565b634e487b7160e01b600052601160045260246000fd5b6000600182016118745761187461184c565b5060010190565b808201808211156109795761097961184c565b600181811c908216806118a257607f821691505b6020821081036118c257634e487b7160e01b600052602260045260246000fd5b50919050565b601f82111561191257600081815260208120601f850160051c810160208610156118ef5750805b601f850160051c820191505b8181101561190e578281556001016118fb565b5050505b505050565b815167ffffffffffffffff81111561193157611931611447565b6119458161193f845461188e565b846118c8565b602080601f83116001811461197a57600084156119625750858301515b600019600386901b1c1916600185901b17855561190e565b600085815260208120601f198616915b828110156119a95788860151825594840194600190910190840161198a565b50858210156119c75787850151600019600388901b60f8161c191681555b5050505050600190811b01905550565b6000602082840312156119e957600080fd5b5051919050565b80820281158282048414176109795761097961184c565b818103818111156109795761097961184c565b600082611a3757634e487b7160e01b600052601260045260246000fd5b50049056fea2646970667358221220b3ad6c67f24352c0563c16913a5f06497bf666ad8a82e8dc6b3c96c336eec2c864736f6c63430008140033",
  "linkReferences": {},
  "deployedLinkReferences": {}
}