{
  "_format": "hh-sol-artifact-1",
  "contractName": "IncentiveSystem",
  "sourceName": "contracts/IncentiveSystem.sol",
  "abi": [
    {
      "inputs": [
        {
          "internalType": "address",
          "name": "_solToken",
          "type": "address"
        },
        {
          "internalType": "address",
          "name": "_reputationSystem",
          "type": "address"
        },
        {
          "internalType": "address",
          "name": "_socialPosts",
          "type": "address"
        }
      ],
      "stateMutability": "nonpayable",
      "type": "constructor"
    },
    {
      "inputs": [
        {
          "internalType": "address",
          "name": "owner",
          "type": "address"
        }
      ],
      "name": "OwnableInvalidOwner",
      "type": "error"
    },
    {
      "inputs": [
        {
          "internalType": "address",
          "name": "account",
          "type": "address"
        }
      ],
      "name": "OwnableUnauthorizedAccount",
      "type": "error"
    },
    {
      "anonymous": false,
      "inputs": [
        {
          "indexed": true,
          "internalType": "address",
          "name": "user",
          "type": "address"
        },
        {
          "indexed": false,
          "internalType": "uint256",
          "name": "amount",
          "type": "uint256"
        },
        {
          "indexed": false,
          "internalType": "uint256",
          "name": "postId",
          "type": "uint256"
        }
      ],
      "name": "EngagementReward",
      "type": "event"
    },
    {
      "anonymous": false,
      "inputs": [
        {
          "indexed": true,
          "internalType": "address",
          "name": "previousOwner",
          "type": "address"
        },
        {
          "indexed": true,
          "internalType": "address",
          "name": "newOwner",
          "type": "address"
        }
      ],
      "name": "OwnershipTransferred",
      "type": "event"
    },
    {
      "anonymous": false,
      "inputs": [
        {
          "indexed": true,
          "internalType": "address",
          "name": "user",
          "type": "address"
        },
        {
          "indexed": false,
          "internalType": "uint256",
          "name": "amount",
          "type": "uint256"
        },
        {
          "indexed": false,
          "internalType": "string",
          "name": "reason",
          "type": "string"
        }
      ],
      "name": "RewardClaimed",
      "type": "event"
    },
    {
      "inputs": [],
      "name": "baseRewardPerPost",
      "outputs": [
        {
          "internalType": "uint256",
          "name": "",
          "type": "uint256"
        }
      ],
      "stateMutability": "view",
      "type": "function"
    },
    {
      "inputs": [
        {
          "internalType": "address",
          "name": "user",
          "type": "address"
        }
      ],
      "name": "calculatePostReward",
      "outputs": [
        {
          "internalType": "uint256",
          "name": "",
          "type": "uint256"
        }
      ],
      "stateMutability": "view",
      "type": "function"
    },
    {
      "inputs": [
        {
          "internalType": "address",
          "name": "user",
          "type": "address"
        }
      ],
      "name": "canClaimReward",
      "outputs": [
        {
          "internalType": "bool",
          "name": "",
          "type": "bool"
        }
      ],
      "stateMutability": "view",
      "type": "function"
    },
    {
      "inputs": [
        {
          "internalType": "uint256",
          "name": "postId",
          "type": "uint256"
        }
      ],
      "name": "claimEngagementReward",
      "outputs": [],
      "stateMutability": "nonpayable",
      "type": "function"
    },
    {
      "inputs": [],
      "name": "claimPostRewards",
      "outputs": [],
      "stateMutability": "nonpayable",
      "type": "function"
    },
    {
      "inputs": [
        {
          "internalType": "address",
          "name": "",
          "type": "address"
        }
      ],
      "name": "dailyRewardCount",
      "outputs": [
        {
          "internalType": "uint256",
          "name": "",
          "type": "uint256"
        }
      ],
      "stateMutability": "view",
      "type": "function"
    },
    {
      "inputs": [],
      "name": "engagementReward",
      "outputs": [
        {
          "internalType": "uint256",
          "name": "",
          "type": "uint256"
        }
      ],
      "stateMutability": "view",
      "type": "function"
    },
    {
      "inputs": [
        {
          "internalType": "address",
          "name": "user",
          "type": "address"
        }
      ],
      "name": "getRewardInfo",
      "outputs": [
        {
          "internalType": "uint256",
          "name": "pendingRewards",
          "type": "uint256"
        },
        {
          "internalType": "uint256",
          "name": "nextClaimTime",
          "type": "uint256"
        },
        {
          "internalType": "uint256",
          "name": "dailyRewardsLeft",
          "type": "uint256"
        },
        {
          "internalType": "uint256",
          "name": "totalEarned",
          "type": "uint256"
        }
      ],
      "stateMutability": "view",
      "type": "function"
    },
    {
      "inputs": [
        {
          "internalType": "address",
          "name": "",
          "type": "address"
        }
      ],
      "name": "lastProcessedPost",
      "outputs": [
        {
          "internalType": "uint256",
          "name": "",
          "type": "uint256"
        }
      ],
      "stateMutability": "view",
      "type": "function"
    },
    {
      "inputs": [
        {
          "internalType": "address",
          "name": "",
          "type": "address"
        }
      ],
      "name": "lastRewardDay",
      "outputs": [
        {
          "internalType": "uint256",
          "name": "",
          "type": "uint256"
        }
      ],
      "stateMutability": "view",
      "type": "function"
    },
    {
      "inputs": [
        {
          "internalType": "address",
          "name": "",
          "type": "address"
        }
      ],
      "name": "lastRewardTime",
      "outputs": [
        {
          "internalType": "uint256",
          "name": "",
          "type": "uint256"
        }
      ],
      "stateMutability": "view",
      "type": "function"
    },
    {
      "inputs": [],
      "name": "maxDailyRewards",
      "outputs": [
        {
          "internalType": "uint256",
          "name": "",
          "type": "uint256"
        }
      ],
      "stateMutability": "view",
      "type": "function"
    },
    {
      "inputs": [],
      "name": "minTimeBetweenRewards",
      "outputs": [
        {
          "internalType": "uint256",
          "name": "",
          "type": "uint256"
        }
      ],
      "stateMutability": "view",
      "type": "function"
    },
    {
      "inputs": [],
      "name": "owner",
      "outputs": [
        {
          "internalType": "address",
          "name": "",
          "type": "address"
        }
      ],
      "stateMutability": "view",
      "type": "function"
    },
    {
      "inputs": [],
      "name": "renounceOwnership",
      "outputs": [],
      "stateMutability": "nonpayable",
      "type": "function"
    },
    {
      "inputs": [],
      "name": "reputationSystem",
      "outputs": [
        {
          "internalType": "contract ReputationSystem",
          "name": "",
          "type": "address"
        }
      ],
      "stateMutability": "view",
      "type": "function"
    },
    {
      "inputs": [
        {
          "internalType": "uint256",
          "name": "_maxDailyRewards",
          "type": "uint256"
        },
        {
          "internalType": "uint256",
          "name": "_minTimeBetweenRewards",
          "type": "uint256"
        }
      ],
      "name": "setAntiSybilLimits",
      "outputs": [],
      "stateMutability": "nonpayable",
      "type": "function"
    },
    {
      "inputs": [
        {
          "internalType": "uint256",
          "name": "_baseRewardPerPost",
          "type": "uint256"
        },
        {
          "internalType": "uint256",
          "name": "_tierMultiplier",
          "type": "uint256"
        },
        {
          "internalType": "uint256",
          "name": "_engagementReward",
          "type": "uint256"
        }
      ],
      "name": "setRewardRates",
      "outputs": [],
      "stateMutability": "nonpayable",
      "type": "function"
    },
    {
      "inputs": [],
      "name": "socialPosts",
      "outputs": [
        {
          "internalType": "contract ISocialPosts",
          "name": "",
          "type": "address"
        }
      ],
      "stateMutability": "view",
      "type": "function"
    },
    {
      "inputs": [],
      "name": "solToken",
      "outputs": [
        {
          "internalType": "contract SOLToken",
          "name": "",
          "type": "address"
        }
      ],
      "stateMutability": "view",
      "type": "function"
    },
    {
      "inputs": [],
      "name": "tierMultiplier",
      "outputs": [
        {
          "internalType": "uint256",
          "name": "",
          "type": "uint256"
        }
      ],
      "stateMutability": "view",
      "type": "function"
    },
    {
      "inputs": [
        {
          "internalType": "address",
          "name": "",
          "type": "address"
        }
      ],
      "name": "totalRewardsEarned",
      "outputs": [
        {
          "internalType": "uint256",
          "name": "",
          "type": "uint256"
        }
      ],
      "stateMutability": "view",
      "type": "function"
    },
    {
      "inputs": [
        {
          "internalType": "address",
          "name": "newOwner",
          "type": "address"
        }
      ],
      "name": "transferOwnership",
      "outputs": [],
      "stateMutability": "nonpayable",
      "type": "function"
    }
  ],
  "bytecode": "0x6080604052670de0b6b3a7640000600455603260055567016345785d8a0000600655600a805561012c600b553480156200003857600080fd5b5060405162001379380380620013798339810160408190526200005b916200013e565b33806200008257604051631e4fbdf760e01b81526000600482015260240160405180910390fd5b6200008d81620000d1565b50600180546001600160a01b039485166001600160a01b03199182161790915560028054938516938216939093179092556003805491909316911617905562000188565b600080546001600160a01b038381166001600160a01b0319831681178455604051919092169283917f8be0079c531659141344cd1fd0a4f28419497f9722a3daafe3b4186f6b6457e09190a35050565b80516001600160a01b03811681146200013957600080fd5b919050565b6000806000606084860312156200015457600080fd5b6200015f8462000121565b92506200016f6020850162000121565b91506200017f6040850162000121565b90509250925092565b6111e180620001986000396000f3fe608060405234801561001057600080fd5b506004361061014d5760003560e01c8063840233bb116100c3578063d0fca8661161007c578063d0fca866146102da578063e12b3cc9146102ed578063e4f24cb01461030d578063f241524e1461032d578063f2fde38b14610340578063fd15fa111461035357600080fd5b8063840233bb1461026e578063877fe65d146102775780638da5cb5b146102975780639436f56d146102a85780639907ee29146102c8578063b0390325146102d157600080fd5b80632c1a7213116101155780632c1a7213146101ec5780633b5d441e146101f55780633ca8089e146102155780636587eda114610228578063715018a6146102535780637a2105b71461025b57600080fd5b8063046335d01461015257806304b9855d1461017a57806306032d741461019b5780631f8398ad146101ce5780632129d434146101d7575b600080fd5b610165610160366004610e64565b61035b565b60405190151581526020015b60405180910390f35b61018d610188366004610e64565b6103fb565b604051908152602001610171565b6101ae6101a9366004610e64565b6104b0565b604080519485526020850193909352918301526060820152608001610171565b61018d60055481565b6101ea6101e5366004610e88565b610705565b005b61018d60065481565b61018d610203366004610e64565b60076020526000908152604090205481565b6101ea610223366004610eaa565b610718565b60025461023b906001600160a01b031681565b6040516001600160a01b039091168152602001610171565b6101ea6109bd565b6101ea610269366004610ec3565b6109d1565b61018d600a5481565b61018d610285366004610e64565b60086020526000908152604090205481565b6000546001600160a01b031661023b565b61018d6102b6366004610e64565b60096020526000908152604090205481565b61018d60045481565b61018d600b5481565b60035461023b906001600160a01b031681565b61018d6102fb366004610e64565b600d6020526000908152604090205481565b61018d61031b366004610e64565b600c6020526000908152604090205481565b60015461023b906001600160a01b031681565b6101ea61034e366004610e64565b6109e7565b6101ea610a25565b600b546001600160a01b038216600090815260076020526040812054909161038291610f05565b42101561039157506000919050565b60006103a06201518042610f1e565b6001600160a01b038416600090815260096020526040902054909150811480156103e45750600a546001600160a01b03841660009081526008602052604090205410155b156103f25750600092915050565b50600192915050565b60048054600254604051637269310760e11b81526001600160a01b03858116948201949094526000938492169063e4d2620e90602401602060405180830381865afa15801561044e573d6000803e3d6000fd5b505050506040513d601f19601f820116820180604052508101906104729190610f40565b90506000606460055483856104879190610f59565b6104919190610f59565b61049b9190610f1e565b90506104a78184610f05565b95945050505050565b600354604051639a2194a960e01b81526001600160a01b0383811660048301526000928392839283928392911690639a2194a990602401600060405180830381865afa158015610504573d6000803e3d6000fd5b505050506040513d6000823e601f3d908101601f1916820160405261052c9190810190610fb7565b6001600160a01b0387166000908152600d6020526040902054909150805b825181101561061e5760035483516000916001600160a01b0316906340731c249086908590811061057d5761057d61105d565b60200260200101516040518263ffffffff1660e01b81526004016105a391815260200190565b600060405180830381865afa1580156105c0573d6000803e3d6000fd5b505050506040513d6000823e601f3d908101601f191682016040526105e89190810190611088565b50505093505050508061060b576105fe896103fb565b6106089089610f05565b97505b50806106168161117f565b91505061054a565b50600b546001600160a01b0388166000908152600760205260409020546106459190610f05565b945042851015610653574294505b60006106626201518042610f1e565b6001600160a01b03891660009081526009602052604090205490915081036106d9576001600160a01b038816600090815260086020526040902054600a54116106ac5760006106d2565b6001600160a01b038816600090815260086020526040902054600a546106d29190611198565b94506106df565b600a5494505b5050506001600160a01b039094166000908152600c602052604090205492949193509190565b61070d610d28565b600a91909155600b55565b6107213361035b565b61076c5760405162461bcd60e51b815260206004820152601760248201527610d85b9b9bdd0818db185a5b481c995dd85c99081e595d604a1b60448201526064015b60405180910390fd5b60035460405163101cc70960e21b8152600481018390526000916001600160a01b0316906340731c2490602401600060405180830381865afa1580156107b6573d6000803e3d6000fd5b505050506040513d6000823e601f3d908101601f191682016040526107de9190810190611088565b505050935050505080156108465760405162461bcd60e51b815260206004820152602960248201527f43616e6e6f742072657761726420656e676167656d656e74206f6e20666c616760448201526867656420706f73747360b81b6064820152608401610763565b600654600254604051637269310760e11b81523360048201526000916001600160a01b03169063e4d2620e90602401602060405180830381865afa158015610892573d6000803e3d6000fd5b505050506040513d601f19601f820116820180604052508101906108b69190610f40565b9050606460055482846108c99190610f59565b6108d39190610f59565b6108dd9190610f1e565b6108e79083610f05565b91506108f4336001610d55565b336000908152600c602052604081208054849290610913908490610f05565b90915550506001546040516340c10f1960e01b8152336004820152602481018490526001600160a01b03909116906340c10f1990604401600060405180830381600087803b15801561096457600080fd5b505af1158015610978573d6000803e3d6000fd5b505060408051858152602081018890523393507fed86ee8c51743bad1da0a7da907d91066d59d784755d0ea6f0256f88b87ef1dd92500160405180910390a250505050565b6109c5610d28565b6109cf6000610dff565b565b6109d9610d28565b600492909255600555600655565b6109ef610d28565b6001600160a01b038116610a1957604051631e4fbdf760e01b815260006004820152602401610763565b610a2281610dff565b50565b33610a2f8161035b565b610a755760405162461bcd60e51b815260206004820152601760248201527610d85b9b9bdd0818db185a5b481c995dd85c99081e595d604a1b6044820152606401610763565b600354604051639a2194a960e01b81526001600160a01b0383811660048301526000921690639a2194a990602401600060405180830381865afa158015610ac0573d6000803e3d6000fd5b505050506040513d6000823e601f3d908101601f19168201604052610ae89190810190610fb7565b6001600160a01b0383166000908152600d602052604081205491925080825b845181108015610b185750600a5482105b15610bfa5760035485516000916001600160a01b0316906340731c2490889085908110610b4757610b4761105d565b60200260200101516040518263ffffffff1660e01b8152600401610b6d91815260200190565b600060405180830381865afa158015610b8a573d6000803e3d6000fd5b505050506040513d6000823e601f3d908101601f19168201604052610bb29190810190611088565b505050935050505080610be7576000610bca886103fb565b9050610bd68186610f05565b945083610be28161117f565b945050505b5080610bf28161117f565b915050610b07565b508115610d215783516001600160a01b0386166000908152600d6020526040902055610c268582610d55565b6001600160a01b0385166000908152600c602052604081208054849290610c4e908490610f05565b90915550506001546040516340c10f1960e01b81526001600160a01b03878116600483015260248201859052909116906340c10f1990604401600060405180830381600087803b158015610ca157600080fd5b505af1158015610cb5573d6000803e3d6000fd5b50505050846001600160a01b03167fc7207087d1b9602815027342116944238a53ba3db91a70042ead521a6fcff5c883604051610d18918152604060208201819052600c908201526b506f7374207265776172647360a01b606082015260800190565b60405180910390a25b5050505050565b6000546001600160a01b031633146109cf5760405163118cdaa760e01b8152336004820152602401610763565b6000610d646201518042610f1e565b6001600160a01b0384166000908152600960205260409020549091508114610db3576001600160a01b038316600090815260086020908152604080832085905560099091529020819055610de1565b6001600160a01b03831660009081526008602052604081208054849290610ddb908490610f05565b90915550505b50506001600160a01b03166000908152600760205260409020429055565b600080546001600160a01b038381166001600160a01b0319831681178455604051919092169283917f8be0079c531659141344cd1fd0a4f28419497f9722a3daafe3b4186f6b6457e09190a35050565b6001600160a01b0381168114610a2257600080fd5b600060208284031215610e7657600080fd5b8135610e8181610e4f565b9392505050565b60008060408385031215610e9b57600080fd5b50508035926020909101359150565b600060208284031215610ebc57600080fd5b5035919050565b600080600060608486031215610ed857600080fd5b505081359360208301359350604090920135919050565b634e487b7160e01b600052601160045260246000fd5b80820180821115610f1857610f18610eef565b92915050565b600082610f3b57634e487b7160e01b600052601260045260246000fd5b500490565b600060208284031215610f5257600080fd5b5051919050565b8082028115828204841417610f1857610f18610eef565b634e487b7160e01b600052604160045260246000fd5b604051601f8201601f1916810167ffffffffffffffff81118282101715610faf57610faf610f70565b604052919050565b60006020808385031215610fca57600080fd5b825167ffffffffffffffff80821115610fe257600080fd5b818501915085601f830112610ff657600080fd5b81518181111561100857611008610f70565b8060051b9150611019848301610f86565b818152918301840191848101908884111561103357600080fd5b938501935b8385101561105157845182529385019390850190611038565b98975050505050505050565b634e487b7160e01b600052603260045260246000fd5b8051801515811461108357600080fd5b919050565b600080600080600080600060e0888a0312156110a357600080fd5b875196506020808901516110b681610e4f565b60408a015190975067ffffffffffffffff808211156110d457600080fd5b818b0191508b601f8301126110e857600080fd5b8151818111156110fa576110fa610f70565b61110c601f8201601f19168501610f86565b91508082528c8482850101111561112257600080fd5b60005b81811015611140578381018501518382018601528401611125565b5060008482840101525080975050505061115c60608901611073565b93506080880151925060a0880151915060c0880151905092959891949750929550565b60006001820161119157611191610eef565b5060010190565b81810381811115610f1857610f18610eef56fea26469706673582212206eaf66d916c07705e1fd4b4a9de0cc9cdb6e0bad1ad3a281b320dbec7408354c64736f6c63430008140033",
  "linkReferences": {},
  "deployedLinkReferences": {}
}