{
  "_format": "hh-sol-artifact-1",
  "contractName": "ReputationSBT",
  "sourceName": "contracts/ReputationSBT.sol",
  "abi": [
    {
      "inputs": [
        {
          "internalType": "address",
          "name": "_reputationSystem",
          "type": "address"
        }
      ],
      "stateMutability": "nonpayable",
      "type": "constructor"
    },
    {
      "inputs": [
        {
          "internalType": "address",
          "name": "sender",
          "type": "address"
        },
        {
          "internalType": "uint256",
          "name": "tokenId",
          "type": "uint256"
        },
        {
          "internalType": "address",
          "name": "owner",
          "type": "address"
        }
      ],
      "name": "ERC721IncorrectOwner",
      "type": "error"
    },
    {
      "inputs": [
        {
          "internalType": "address",
          "name": "operator",
          "type": "address"
        },
        {
          "internalType": "uint256",
          "name": "tokenId",
          "type": "uint256"
        }
      ],
      "name": "ERC721InsufficientApproval",
      "type": "error"
    },
    {
      "inputs": [
        {
          "internalType": "address",
          "name": "approver",
          "type": "address"
        }
      ],
      "name": "ERC721InvalidApprover",
      "type": "error"
    },
    {
      "inputs": [
        {
          "internalType": "address",
          "name": "operator",
          "type": "address"
        }
      ],
      "name": "ERC721InvalidOperator",
      "type": "error"
    },
    {
      "inputs": [
        {
          "internalType": "address",
          "name": "owner",
          "type": "address"
        }
      ],
      "name": "ERC721InvalidOwner",
      "type": "error"
    },
    {
      "inputs": [
        {
          "internalType": "address",
          "name": "receiver",
          "type": "address"
        }
      ],
      "name": "ERC721InvalidReceiver",
      "type": "error"
    },
    {
      "inputs": [
        {
          "internalType": "address",
          "name": "sender",
          "type": "address"
        }
      ],
      "name": "ERC721InvalidSender",
      "type": "error"
    },
    {
      "inputs": [
        {
          "internalType": "uint256",
          "name": "tokenId",
          "type": "uint256"
        }
      ],
      "name": "ERC721NonexistentToken",
      "type": "error"
    },
    {
      "inputs": [
        {
          "internalType": "address",
          "name": "owner",
          "type": "address"
        }
      ],
      "name": "OwnableInvalidOwner",
      "type": "error"
    },
    {
      "inputs": [
        {
          "internalType": "address",
          "name": "account",
          "type": "address"
        }
      ],
      "name": "OwnableUnauthorizedAccount",
      "type": "error"
    },
    {
      "anonymous": false,
      "inputs": [
        {
          "indexed": true,
          "internalType": "address",
          "name": "owner",
          "type": "address"
        },
        {
          "indexed": true,
          "internalType": "address",
          "name": "approved",
          "type": "address"
        },
        {
          "indexed": true,
          "internalType": "uint256",
          "name": "tokenId",
          "type": "uint256"
        }
      ],
      "name": "Approval",
      "type": "event"
    },
    {
      "anonymous": false,
      "inputs": [
        {
          "indexed": true,
          "internalType": "address",
          "name": "owner",
          "type": "address"
        },
        {
          "indexed": true,
          "internalType": "address",
          "name": "operator",
          "type": "address"
        },
        {
          "indexed": false,
          "internalType": "bool",
          "name": "approved",
          "type": "bool"
        }
      ],
      "name": "ApprovalForAll",
      "type": "event"
    },
    {
      "anonymous": false,
      "inputs": [
        {
          "indexed": true,
          "internalType": "address",
          "name": "previousOwner",
          "type": "address"
        },
        {
          "indexed": true,
          "internalType": "address",
          "name": "newOwner",
          "type": "address"
        }
      ],
      "name": "OwnershipTransferred",
      "type": "event"
    },
    {
      "anonymous": false,
      "inputs": [
        {
          "indexed": true,
          "internalType": "address",
          "name": "user",
          "type": "address"
        },
        {
          "indexed": true,
          "internalType": "uint256",
          "name": "tokenId",
          "type": "uint256"
        },
        {
          "indexed": false,
          "internalType": "uint256",
          "name": "tier",
          "type": "uint256"
        }
      ],
      "name": "SBTMinted",
      "type": "event"
    },
    {
      "anonymous": false,
      "inputs": [
        {
          "indexed": true,
          "internalType": "address",
          "name": "user",
          "type": "address"
        },
        {
          "indexed": true,
          "internalType": "uint256",
          "name": "tokenId",
          "type": "uint256"
        },
        {
          "indexed": false,
          "internalType": "uint256",
          "name": "oldTier",
          "type": "uint256"
        },
        {
          "indexed": false,
          "internalType": "uint256",
          "name": "newTier",
          "type": "uint256"
        }
      ],
      "name": "SBTUpgraded",
      "type": "event"
    },
    {
      "anonymous": false,
      "inputs": [
        {
          "indexed": true,
          "internalType": "address",
          "name": "from",
          "type": "address"
        },
        {
          "indexed": true,
          "internalType": "address",
          "name": "to",
          "type": "address"
        },
        {
          "indexed": true,
          "internalType": "uint256",
          "name": "tokenId",
          "type": "uint256"
        }
      ],
      "name": "Transfer",
      "type": "event"
    },
    {
      "inputs": [
        {
          "internalType": "address",
          "name": "",
          "type": "address"
        },
        {
          "internalType": "uint256",
          "name": "",
          "type": "uint256"
        }
      ],
      "name": "approve",
      "outputs": [],
      "stateMutability": "pure",
      "type": "function"
    },
    {
      "inputs": [
        {
          "internalType": "address",
          "name": "owner",
          "type": "address"
        }
      ],
      "name": "balanceOf",
      "outputs": [
        {
          "internalType": "uint256",
          "name": "",
          "type": "uint256"
        }
      ],
      "stateMutability": "view",
      "type": "function"
    },
    {
      "inputs": [
        {
          "internalType": "uint256",
          "name": "tokenId",
          "type": "uint256"
        }
      ],
      "name": "getApproved",
      "outputs": [
        {
          "internalType": "address",
          "name": "",
          "type": "address"
        }
      ],
      "stateMutability": "view",
      "type": "function"
    },
    {
      "inputs": [
        {
          "internalType": "address",
          "name": "user",
          "type": "address"
        }
      ],
      "name": "getUserSBT",
      "outputs": [
        {
          "internalType": "uint256",
          "name": "tokenId",
          "type": "uint256"
        },
        {
          "internalType": "uint256",
          "name": "tier",
          "type": "uint256"
        }
      ],
      "stateMutability": "view",
      "type": "function"
    },
    {
      "inputs": [
        {
          "internalType": "address",
          "name": "owner",
          "type": "address"
        },
        {
          "internalType": "address",
          "name": "operator",
          "type": "address"
        }
      ],
      "name": "isApprovedForAll",
      "outputs": [
        {
          "internalType": "bool",
          "name": "",
          "type": "bool"
        }
      ],
      "stateMutability": "view",
      "type": "function"
    },
    {
      "inputs": [
        {
          "internalType": "address",
          "name": "user",
          "type": "address"
        }
      ],
      "name": "mintOrUpgradeSBT",
      "outputs": [],
      "stateMutability": "nonpayable",
      "type": "function"
    },
    {
      "inputs": [],
      "name": "name",
      "outputs": [
        {
          "internalType": "string",
          "name": "",
          "type": "string"
        }
      ],
      "stateMutability": "view",
      "type": "function"
    },
    {
      "inputs": [],
      "name": "owner",
      "outputs": [
        {
          "internalType": "address",
          "name": "",
          "type": "address"
        }
      ],
      "stateMutability": "view",
      "type": "function"
    },
    {
      "inputs": [
        {
          "internalType": "uint256",
          "name": "tokenId",
          "type": "uint256"
        }
      ],
      "name": "ownerOf",
      "outputs": [
        {
          "internalType": "address",
          "name": "",
          "type": "address"
        }
      ],
      "stateMutability": "view",
      "type": "function"
    },
    {
      "inputs": [],
      "name": "renounceOwnership",
      "outputs": [],
      "stateMutability": "nonpayable",
      "type": "function"
    },
    {
      "inputs": [],
      "name": "reputationSystem",
      "outputs": [
        {
          "internalType": "contract ReputationSystem",
          "name": "",
          "type": "address"
        }
      ],
      "stateMutability": "view",
      "type": "function"
    },
    {
      "inputs": [
        {
          "internalType": "address",
          "name": "from",
          "type": "address"
        },
        {
          "internalType": "address",
          "name": "to",
          "type": "address"
        },
        {
          "internalType": "uint256",
          "name": "tokenId",
          "type": "uint256"
        }
      ],
      "name": "safeTransferFrom",
      "outputs": [],
      "stateMutability": "nonpayable",
      "type": "function"
    },
    {
      "inputs": [
        {
          "internalType": "address",
          "name": "",
          "type": "address"
        },
        {
          "internalType": "address",
          "name": "",
          "type": "address"
        },
        {
          "internalType": "uint256",
          "name": "",
          "type": "uint256"
        },
        {
          "internalType": "bytes",
          "name": "",
          "type": "bytes"
        }
      ],
      "name": "safeTransferFrom",
      "outputs": [],
      "stateMutability": "pure",
      "type": "function"
    },
    {
      "inputs": [
        {
          "internalType": "address",
          "name": "",
          "type": "address"
        },
        {
          "internalType": "bool",
          "name": "",
          "type": "bool"
        }
      ],
      "name": "setApprovalForAll",
      "outputs": [],
      "stateMutability": "pure",
      "type": "function"
    },
    {
      "inputs": [
        {
          "internalType": "uint256",
          "name": "tier",
          "type": "uint256"
        },
        {
          "internalType": "string",
          "name": "metadataURI",
          "type": "string"
        }
      ],
      "name": "setTierMetadata",
      "outputs": [],
      "stateMutability": "nonpayable",
      "type": "function"
    },
    {
      "inputs": [
        {
          "internalType": "bytes4",
          "name": "interfaceId",
          "type": "bytes4"
        }
      ],
      "name": "supportsInterface",
      "outputs": [
        {
          "internalType": "bool",
          "name": "",
          "type": "bool"
        }
      ],
      "stateMutability": "view",
      "type": "function"
    },
    {
      "inputs": [],
      "name": "symbol",
      "outputs": [
        {
          "internalType": "string",
          "name": "",
          "type": "string"
        }
      ],
      "stateMutability": "view",
      "type": "function"
    },
    {
      "inputs": [
        {
          "internalType": "uint256",
          "name": "",
          "type": "uint256"
        }
      ],
      "name": "tierMetadata",
      "outputs": [
        {
          "internalType": "string",
          "name": "",
          "type": "string"
        }
      ],
      "stateMutability": "view",
      "type": "function"
    },
    {
      "inputs": [
        {
          "internalType": "uint256",
          "name": "",
          "type": "uint256"
        }
      ],
      "name": "tokenTiers",
      "outputs": [
        {
          "internalType": "uint256",
          "name": "",
          "type": "uint256"
        }
      ],
      "stateMutability": "view",
      "type": "function"
    },
    {
      "inputs": [
        {
          "internalType": "uint256",
          "name": "tokenId",
          "type": "uint256"
        }
      ],
      "name": "tokenURI",
      "outputs": [
        {
          "internalType": "string",
          "name": "",
          "type": "string"
        }
      ],
      "stateMutability": "view",
      "type": "function"
    },
    {
      "inputs": [
        {
          "internalType": "address",
          "name": "",
          "type": "address"
        },
        {
          "internalType": "address",
          "name": "",
          "type": "address"
        },
        {
          "internalType": "uint256",
          "name": "",
          "type": "uint256"
        }
      ],
      "name": "transferFrom",
      "outputs": [],
      "stateMutability": "pure",
      "type": "function"
    },
    {
      "inputs": [
        {
          "internalType": "address",
          "name": "newOwner",
          "type": "address"
        }
      ],
      "name": "transferOwnership",
      "outputs": [],
      "stateMutability": "nonpayable",
      "type": "function"
    },
    {
      "inputs": [
        {
          "internalType": "address",
          "name": "",
          "type": "address"
        }
      ],
      "name": "userTokens",
      "outputs": [
        {
          "internalType": "uint256",
          "name": "",
          "type": "uint256"
        }
      ],
      "stateMutability": "view",
      "type": "function"
    }
  ],
  "bytecode": "0x60806040526001600b553480156200001657600080fd5b506040516200179038038062001790833981016040819052620000399162000308565b336040518060400160405280601181526020017029a7a61020a4902932b83aba30ba34b7b760791b815250604051806040016040528060068152602001650534f4c5245560d41b8152508160009081620000949190620003df565b506001620000a38282620003df565b5050506001600160a01b038116620000d557604051631e4fbdf760e01b81526000600482015260240160405180910390fd5b620000e081620002b6565b50600780546001600160a01b0319166001600160a01b03831617905560408051808201909152601381527f697066733a2f2f516d42726f6e7a65546965720000000000000000000000000060208083019190915260008052600a90527f13da86008ba1c6922daee3e07db95305ef49ebced9f5467a0b8613fcc6b343e3906200016a9082620003df565b5060408051808201909152601381527f697066733a2f2f516d53696c76657254696572000000000000000000000000006020808301919091526001600052600a90527fbbc70db1b6c7afd11e79c0fb0051300458f1a3acb8ee9789d9b6b26c61ad9bc790620001da9082620003df565b5060408051808201909152601181527034b833399d1797a8b6a3b7b6322a34b2b960791b6020808301919091526002600052600a90527fbff4442b8ed600beeb8e26b1279a0f0d14c6edfaec26d968ee13c86f7d4c2ba8906200023e9082620003df565b5060408051808201909152601581527f697066733a2f2f516d506c6174696e756d5469657200000000000000000000006020808301919091526003600052600a90527fa856840544dc26124927add067d799967eac11be13e14d82cc281ea46fa3975990620002ae9082620003df565b5050620004ab565b600680546001600160a01b038381166001600160a01b0319831681179093556040519116919082907f8be0079c531659141344cd1fd0a4f28419497f9722a3daafe3b4186f6b6457e090600090a35050565b6000602082840312156200031b57600080fd5b81516001600160a01b03811681146200033357600080fd5b9392505050565b634e487b7160e01b600052604160045260246000fd5b600181811c908216806200036557607f821691505b6020821081036200038657634e487b7160e01b600052602260045260246000fd5b50919050565b601f821115620003da57600081815260208120601f850160051c81016020861015620003b55750805b601f850160051c820191505b81811015620003d657828155600101620003c1565b5050505b505050565b81516001600160401b03811115620003fb57620003fb6200033a565b62000413816200040c845462000350565b846200038c565b602080601f8311600181146200044b5760008415620004325750858301515b600019600386901b1c1916600185901b178555620003d6565b600085815260208120601f198616915b828110156200047c578886015182559484019460019091019084016200045b565b50858210156200049b5787850151600019600388901b60f8161c191681555b5050505050600190811b01905550565b6112d580620004bb6000396000f3fe608060405234801561001057600080fd5b506004361061014d5760003560e01c8063715018a6116100c3578063ae1b120f1161007c578063ae1b120f146102d9578063b88d4fde146102ec578063c87b56dd146102fa578063e985e9c51461030d578063ed498fa814610320578063f2fde38b1461034057600080fd5b8063715018a61461026257806380f4b8c81461026a578063818f2e42146102925780638da5cb5b146102b257806395d89b41146102c3578063a22cb465146102cb57600080fd5b806323b872dd1161011557806323b872dd146101e257806342842e0e146101f55780635491bf32146102085780636352211e1461021b5780636587eda11461022e57806370a082311461024157600080fd5b806301ffc9a71461015257806304df1dbe1461017a57806306fdde031461019a578063081812fc146101a2578063095ea7b3146101cd575b600080fd5b610165610160366004610dca565b610353565b60405190151581526020015b60405180910390f35b61018d610188366004610dfb565b6103a5565b6040516101719190610e14565b61018d61043f565b6101b56101b0366004610dfb565b6104d1565b6040516001600160a01b039091168152602001610171565b6101e06101db366004610e7e565b6104fa565b005b6101e06101f0366004610ea8565b610553565b6101e0610203366004610ea8565b61056b565b6101e0610216366004610f70565b61058b565b6101b5610229366004610dfb565b6105eb565b6007546101b5906001600160a01b031681565b61025461024f366004610fcb565b6105f6565b604051908152602001610171565b6101e061063e565b61027d610278366004610fcb565b610652565b60408051928352602083019190915201610171565b6102546102a0366004610dfb565b60096020526000908152604090205481565b6006546001600160a01b03166101b5565b61018d610688565b6101e06101db366004610fe6565b6101e06102e7366004610fcb565b610697565b6101e06101f0366004611022565b61018d610308366004610dfb565b610822565b61016561031b36600461109e565b61092e565b61025461032e366004610fcb565b60086020526000908152604090205481565b6101e061034e366004610fcb565b61095c565b60006001600160e01b031982166380ac58cd60e01b148061038457506001600160e01b03198216635b5e139f60e01b145b8061039f57506301ffc9a760e01b6001600160e01b03198316145b92915050565b600a60205260009081526040902080546103be906110d1565b80601f01602080910402602001604051908101604052809291908181526020018280546103ea906110d1565b80156104375780601f1061040c57610100808354040283529160200191610437565b820191906000526020600020905b81548152906001019060200180831161041a57829003601f168201915b505050505081565b60606000805461044e906110d1565b80601f016020809104026020016040519081016040528092919081815260200182805461047a906110d1565b80156104c75780601f1061049c576101008083540402835291602001916104c7565b820191906000526020600020905b8154815290600101906020018083116104aa57829003601f168201915b5050505050905090565b60006104dc8261099a565b506000828152600460205260409020546001600160a01b031661039f565b60405162461bcd60e51b815260206004820152602360248201527f536f756c626f756e6420746f6b656e732063616e6e6f7420626520617070726f6044820152621d995960ea1b60648201526084015b60405180910390fd5b60405162461bcd60e51b815260040161054a9061110b565b61058683838360405180602001604052806000815250610553565b505050565b6105936109d3565b60038211156105d35760405162461bcd60e51b815260206004820152600c60248201526b24b73b30b634b2103a34b2b960a11b604482015260640161054a565b6000828152600a60205260409020610586828261119f565b600061039f8261099a565b60006001600160a01b038216610622576040516322718ad960e21b81526000600482015260240161054a565b506001600160a01b031660009081526003602052604090205490565b6106466109d3565b6106506000610a00565b565b6001600160a01b03811660009081526008602052604081205490811561068357506000818152600960205260409020545b915091565b60606001805461044e906110d1565b600754604051637269310760e11b81526001600160a01b038381166004830152600092169063e4d2620e90602401602060405180830381865afa1580156106e2573d6000803e3d6000fd5b505050506040513d601f19601f82011682018060405250810190610706919061125f565b6001600160a01b0383166000908152600860205260408120549192508190036107b057600b80546000918261073a83611278565b91905055905061074a8482610a52565b6001600160a01b0384166000818152600860209081526040808320859055848352600982529182902086905590518581528392917f41609a6dac50ea062ed5a87fd1db5de6b5abe79c0246ab99f48011f8e2a76dad91015b60405180910390a350505050565b6000818152600960205260409020548083111561081c57600082815260096020908152604091829020859055815183815290810185905283916001600160a01b038716917fb563979765f59a2f0bd2aeb9753800ab162ebc5fe44bda69f0decc8e256c0ff191016107a2565b50505050565b6000818152600260205260409020546060906001600160a01b03166108805760405162461bcd60e51b8152602060048201526014602482015273151bdad95b88191bd95cc81b9bdd08195e1a5cdd60621b604482015260640161054a565b600082815260096020908152604080832054808452600a90925290912080546108a8906110d1565b80601f01602080910402602001604051908101604052809291908181526020018280546108d4906110d1565b80156109215780601f106108f657610100808354040283529160200191610921565b820191906000526020600020905b81548152906001019060200180831161090457829003601f168201915b5050505050915050919050565b6001600160a01b03918216600090815260056020908152604080832093909416825291909152205460ff1690565b6109646109d3565b6001600160a01b03811661098e57604051631e4fbdf760e01b81526000600482015260240161054a565b61099781610a00565b50565b6000818152600260205260408120546001600160a01b03168061039f57604051637e27328960e01b81526004810184905260240161054a565b6006546001600160a01b031633146106505760405163118cdaa760e01b815233600482015260240161054a565b600680546001600160a01b038381166001600160a01b0319831681179093556040519116919082907f8be0079c531659141344cd1fd0a4f28419497f9722a3daafe3b4186f6b6457e090600090a35050565b6001600160a01b038216610a7c57604051633250574960e11b81526000600482015260240161054a565b6000610a8a83836000610ab7565b90506001600160a01b03811615610586576040516339e3563760e11b81526000600482015260240161054a565b6000828152600260205260408120546001600160a01b03168015610aed5760405162461bcd60e51b815260040161054a9061110b565b610af8858585610b01565b95945050505050565b6000828152600260205260408120546001600160a01b0390811690831615610b2e57610b2e818486610bfa565b6001600160a01b03811615610b6c57610b4b600085600080610c5e565b6001600160a01b038116600090815260036020526040902080546000190190555b6001600160a01b03851615610b9b576001600160a01b0385166000908152600360205260409020805460010190555b60008481526002602052604080822080546001600160a01b0319166001600160a01b0389811691821790925591518793918516917fddf252ad1be2c89b69c2b068fc378daa952ba7f163c4a11628f55a4df523b3ef91a4949350505050565b610c05838383610d64565b610586576001600160a01b038316610c3357604051637e27328960e01b81526004810182905260240161054a565b60405163177e802f60e01b81526001600160a01b03831660048201526024810182905260440161054a565b8080610c7257506001600160a01b03821615155b15610d34576000610c828461099a565b90506001600160a01b03831615801590610cae5750826001600160a01b0316816001600160a01b031614155b8015610cc15750610cbf818461092e565b155b15610cea5760405163a9fbf51f60e01b81526001600160a01b038416600482015260240161054a565b8115610d325783856001600160a01b0316826001600160a01b03167f8c5be1e5ebec7d5bd14f71427d1e84f3dd0314c0f7b2291e5b200ac8c7c3b92560405160405180910390a45b505b5050600090815260046020526040902080546001600160a01b0319166001600160a01b0392909216919091179055565b60006001600160a01b03831615801590610dc25750826001600160a01b0316846001600160a01b03161480610d9e5750610d9e848461092e565b80610dc257506000828152600460205260409020546001600160a01b038481169116145b949350505050565b600060208284031215610ddc57600080fd5b81356001600160e01b031981168114610df457600080fd5b9392505050565b600060208284031215610e0d57600080fd5b5035919050565b600060208083528351808285015260005b81811015610e4157858101830151858201604001528201610e25565b506000604082860101526040601f19601f8301168501019250505092915050565b80356001600160a01b0381168114610e7957600080fd5b919050565b60008060408385031215610e9157600080fd5b610e9a83610e62565b946020939093013593505050565b600080600060608486031215610ebd57600080fd5b610ec684610e62565b9250610ed460208501610e62565b9150604084013590509250925092565b634e487b7160e01b600052604160045260246000fd5b600067ffffffffffffffff80841115610f1557610f15610ee4565b604051601f8501601f19908116603f01168101908282118183101715610f3d57610f3d610ee4565b81604052809350858152868686011115610f5657600080fd5b858560208301376000602087830101525050509392505050565b60008060408385031215610f8357600080fd5b82359150602083013567ffffffffffffffff811115610fa157600080fd5b8301601f81018513610fb257600080fd5b610fc185823560208401610efa565b9150509250929050565b600060208284031215610fdd57600080fd5b610df482610e62565b60008060408385031215610ff957600080fd5b61100283610e62565b91506020830135801515811461101757600080fd5b809150509250929050565b6000806000806080858703121561103857600080fd5b61104185610e62565b935061104f60208601610e62565b925060408501359150606085013567ffffffffffffffff81111561107257600080fd5b8501601f8101871361108357600080fd5b61109287823560208401610efa565b91505092959194509250565b600080604083850312156110b157600080fd5b6110ba83610e62565b91506110c860208401610e62565b90509250929050565b600181811c908216806110e557607f821691505b60208210810361110557634e487b7160e01b600052602260045260246000fd5b50919050565b60208082526026908201527f536f756c626f756e6420746f6b656e732063616e6e6f74206265207472616e7360408201526519995c9c995960d21b606082015260800190565b601f82111561058657600081815260208120601f850160051c810160208610156111785750805b601f850160051c820191505b8181101561119757828155600101611184565b505050505050565b815167ffffffffffffffff8111156111b9576111b9610ee4565b6111cd816111c784546110d1565b84611151565b602080601f83116001811461120257600084156111ea5750858301515b600019600386901b1c1916600185901b178555611197565b600085815260208120601f198616915b8281101561123157888601518255948401946001909101908401611212565b508582101561124f5787850151600019600388901b60f8161c191681555b5050505050600190811b01905550565b60006020828403121561127157600080fd5b5051919050565b60006001820161129857634e487b7160e01b600052601160045260246000fd5b506001019056fea264697066735822122053ceb4b6ee14f4405f9f8d7d2129a51ba9cd4957daf9a1611806d70ed510dd9664736f6c63430008140033",
  "linkReferences": {},
  "deployedLinkReferences": {}
}