{
  "_format": "hh-sol-artifact-1",
  "contractName": "ReputationSystem",
  "sourceName": "contracts/ReputationSystem.sol",
  "abi": [
    {
      "inputs": [
        {
          "internalType": "address",
          "name": "_socialPosts",
          "type": "address"
        }
      ],
      "stateMutability": "nonpayable",
      "type": "constructor"
    },
    {
      "inputs": [
        {
          "internalType": "address",
          "name": "owner",
          "type": "address"
        }
      ],
      "name": "OwnableInvalidOwner",
      "type": "error"
    },
    {
      "inputs": [
        {
          "internalType": "address",
          "name": "account",
          "type": "address"
        }
      ],
      "name": "OwnableUnauthorizedAccount",
      "type": "error"
    },
    {
      "anonymous": false,
      "inputs": [
        {
          "indexed": true,
          "internalType": "address",
          "name": "previousOwner",
          "type": "address"
        },
        {
          "indexed": true,
          "internalType": "address",
          "name": "newOwner",
          "type": "address"
        }
      ],
      "name": "OwnershipTransferred",
      "type": "event"
    },
    {
      "anonymous": false,
      "inputs": [
        {
          "indexed": true,
          "internalType": "address",
          "name": "user",
          "type": "address"
        },
        {
          "indexed": false,
          "internalType": "uint256",
          "name": "newScore",
          "type": "uint256"
        },
        {
          "indexed": false,
          "internalType": "uint256",
          "name": "newTier",
          "type": "uint256"
        }
      ],
      "name": "ReputationUpdated",
      "type": "event"
    },
    {
      "anonymous": false,
      "inputs": [
        {
          "indexed": true,
          "internalType": "address",
          "name": "user",
          "type": "address"
        },
        {
          "indexed": false,
          "internalType": "uint256",
          "name": "oldTier",
          "type": "uint256"
        },
        {
          "indexed": false,
          "internalType": "uint256",
          "name": "newTier",
          "type": "uint256"
        }
      ],
      "name": "TierUpgraded",
      "type": "event"
    },
    {
      "inputs": [],
      "name": "BASE_POINTS_PER_POST",
      "outputs": [
        {
          "internalType": "uint256",
          "name": "",
          "type": "uint256"
        }
      ],
      "stateMutability": "view",
      "type": "function"
    },
    {
      "inputs": [],
      "name": "FLAGGED_POST_PENALTY",
      "outputs": [
        {
          "internalType": "uint256",
          "name": "",
          "type": "uint256"
        }
      ],
      "stateMutability": "view",
      "type": "function"
    },
    {
      "inputs": [],
      "name": "MAX_BASE_POINTS",
      "outputs": [
        {
          "internalType": "uint256",
          "name": "",
          "type": "uint256"
        }
      ],
      "stateMutability": "view",
      "type": "function"
    },
    {
      "inputs": [],
      "name": "MAX_SAFETY_BONUS",
      "outputs": [
        {
          "internalType": "uint256",
          "name": "",
          "type": "uint256"
        }
      ],
      "stateMutability": "view",
      "type": "function"
    },
    {
      "inputs": [],
      "name": "MAX_SAFE_BONUS",
      "outputs": [
        {
          "internalType": "uint256",
          "name": "",
          "type": "uint256"
        }
      ],
      "stateMutability": "view",
      "type": "function"
    },
    {
      "inputs": [],
      "name": "SAFE_POST_BONUS",
      "outputs": [
        {
          "internalType": "uint256",
          "name": "",
          "type": "uint256"
        }
      ],
      "stateMutability": "view",
      "type": "function"
    },
    {
      "inputs": [
        {
          "internalType": "address",
          "name": "user",
          "type": "address"
        }
      ],
      "name": "calculateReputation",
      "outputs": [
        {
          "internalType": "uint256",
          "name": "",
          "type": "uint256"
        }
      ],
      "stateMutability": "view",
      "type": "function"
    },
    {
      "inputs": [
        {
          "internalType": "address",
          "name": "user",
          "type": "address"
        }
      ],
      "name": "getReputationScore",
      "outputs": [
        {
          "internalType": "uint256",
          "name": "",
          "type": "uint256"
        }
      ],
      "stateMutability": "view",
      "type": "function"
    },
    {
      "inputs": [
        {
          "internalType": "uint256",
          "name": "score",
          "type": "uint256"
        }
      ],
      "name": "getTierFromScore",
      "outputs": [
        {
          "internalType": "uint256",
          "name": "",
          "type": "uint256"
        }
      ],
      "stateMutability": "view",
      "type": "function"
    },
    {
      "inputs": [
        {
          "internalType": "uint256",
          "name": "tier",
          "type": "uint256"
        }
      ],
      "name": "getTierName",
      "outputs": [
        {
          "internalType": "string",
          "name": "",
          "type": "string"
        }
      ],
      "stateMutability": "pure",
      "type": "function"
    },
    {
      "inputs": [
        {
          "internalType": "address",
          "name": "user",
          "type": "address"
        }
      ],
      "name": "getUserReputation",
      "outputs": [
        {
          "components": [
            {
              "internalType": "uint256",
              "name": "score",
              "type": "uint256"
            },
            {
              "internalType": "uint256",
              "name": "totalPosts",
              "type": "uint256"
            },
            {
              "internalType": "uint256",
              "name": "safePosts",
              "type": "uint256"
            },
            {
              "internalType": "uint256",
              "name": "flaggedPosts",
              "type": "uint256"
            },
            {
              "internalType": "uint256",
              "name": "lastUpdated",
              "type": "uint256"
            },
            {
              "internalType": "uint256",
              "name": "tier",
              "type": "uint256"
            }
          ],
          "internalType": "struct ReputationSystem.UserReputation",
          "name": "",
          "type": "tuple"
        }
      ],
      "stateMutability": "view",
      "type": "function"
    },
    {
      "inputs": [
        {
          "internalType": "address",
          "name": "user",
          "type": "address"
        }
      ],
      "name": "getUserTier",
      "outputs": [
        {
          "internalType": "uint256",
          "name": "",
          "type": "uint256"
        }
      ],
      "stateMutability": "view",
      "type": "function"
    },
    {
      "inputs": [],
      "name": "owner",
      "outputs": [
        {
          "internalType": "address",
          "name": "",
          "type": "address"
        }
      ],
      "stateMutability": "view",
      "type": "function"
    },
    {
      "inputs": [],
      "name": "renounceOwnership",
      "outputs": [],
      "stateMutability": "nonpayable",
      "type": "function"
    },
    {
      "inputs": [
        {
          "internalType": "uint256",
          "name": "tier",
          "type": "uint256"
        },
        {
          "internalType": "uint256",
          "name": "threshold",
          "type": "uint256"
        }
      ],
      "name": "setTierThreshold",
      "outputs": [],
      "stateMutability": "nonpayable",
      "type": "function"
    },
    {
      "inputs": [],
      "name": "socialPosts",
      "outputs": [
        {
          "internalType": "contract ISocialPosts",
          "name": "",
          "type": "address"
        }
      ],
      "stateMutability": "view",
      "type": "function"
    },
    {
      "inputs": [
        {
          "internalType": "uint256",
          "name": "",
          "type": "uint256"
        }
      ],
      "name": "tierThresholds",
      "outputs": [
        {
          "internalType": "uint256",
          "name": "",
          "type": "uint256"
        }
      ],
      "stateMutability": "view",
      "type": "function"
    },
    {
      "inputs": [
        {
          "internalType": "address",
          "name": "newOwner",
          "type": "address"
        }
      ],
      "name": "transferOwnership",
      "outputs": [],
      "stateMutability": "nonpayable",
      "type": "function"
    },
    {
      "inputs": [
        {
          "internalType": "address",
          "name": "user",
          "type": "address"
        }
      ],
      "name": "updateReputation",
      "outputs": [],
      "stateMutability": "nonpayable",
      "type": "function"
    },
    {
      "inputs": [
        {
          "internalType": "address",
          "name": "",
          "type": "address"
        }
      ],
      "name": "userReputations",
      "outputs": [
        {
          "internalType": "uint256",
          "name": "score",
          "type": "uint256"
        },
        {
          "internalType": "uint256",
          "name": "totalPosts",
          "type": "uint256"
        },
        {
          "internalType": "uint256",
          "name": "safePosts",
          "type": "uint256"
        },
        {
          "internalType": "uint256",
          "name": "flaggedPosts",
          "type": "uint256"
        },
        {
          "internalType": "uint256",
          "name": "lastUpdated",
          "type": "uint256"
        },
        {
          "internalType": "uint256",
          "name": "tier",
          "type": "uint256"
        }
      ],
      "stateMutability": "view",
      "type": "function"
    }
  ],
  "bytecode": "0x608060405234801561001057600080fd5b50604051610e8b380380610e8b83398101604081905261002f9161016e565b338061005557604051631e4fbdf760e01b81526000600482015260240160405180910390fd5b61005e8161011e565b50600180546001600160a01b0319166001600160a01b03929092169190911790556003602081905260007f3617319a054d772f909f7c479a2cebe5066e836a939412e32403c99029b92eff81905560197fa15bc60c955c405d20d9149c709e2460f1c2d9a497496a7f46004d1772c3054c5560327fc3a24b0501bd2c13a7e57f2db4369ec4c223447539fc0724a9d55ac4a06ebd4d5552604b7fcbc4e5fb02c3d1de23a9f1e014b4d2ee5aeaea9505df5e855c9210bf472495af5561019e565b600080546001600160a01b038381166001600160a01b0319831681178455604051919092169283917f8be0079c531659141344cd1fd0a4f28419497f9722a3daafe3b4186f6b6457e09190a35050565b60006020828403121561018057600080fd5b81516001600160a01b038116811461019757600080fd5b9392505050565b610cde806101ad6000396000f3fe608060405234801561001057600080fd5b506004361061012c5760003560e01c8063a100d69d116100ad578063e4d2620e11610071578063e4d2620e146102a4578063e8fe612b146102b7578063f2fde38b146102bf578063f8b11691146102d2578063fcaaf2401461034457600080fd5b8063a100d69d14610202578063b34c17b714610222578063baccbfdb1461022a578063c3ea588314610289578063d0fca8661461029157600080fd5b8063715018a6116100f4578063715018a61461019a57806375a67d5c146101a25780638da5cb5b146101b55780639719e61d146101da578063980eedf0146101e257600080fd5b80630e90e565146101315780630f96fd791461014657806327c06fd5146101595780635cbcdec01461017f57806361881c8014610187575b600080fd5b61014461013f366004610b68565b61034c565b005b610144610154366004610b91565b6105e0565b61016c610167366004610b68565b61063f565b6040519081526020015b60405180910390f35b61016c600281565b61016c610195366004610bb3565b610877565b610144610930565b61016c6101b0366004610b68565b610944565b6000546001600160a01b03165b6040516001600160a01b039091168152602001610176565b61016c600a81565b6101f56101f0366004610bb3565b610955565b6040516101769190610bcc565b61016c610210366004610bb3565b60036020526000908152604090205481565b61016c603281565b61023d610238366004610b68565b6109f7565b6040516101769190600060c082019050825182526020830151602083015260408301516040830152606083015160608301526080830151608083015260a083015160a083015292915050565b61016c602881565b6001546101c2906001600160a01b031681565b61016c6102b2366004610b68565b610a8f565b61016c600181565b6101446102cd366004610b68565b610aad565b6103176102e0366004610b68565b6002602081905260009182526040909120805460018201549282015460038301546004840154600590940154929493919290919086565b604080519687526020870195909552938501929092526060840152608083015260a082015260c001610176565b61016c600581565b60006103578261063f565b6001600160a01b03831660009081526002602052604081206005015491925061037f83610877565b6040805160c081018252858152600154915162504c1960e11b81526001600160a01b03888116600483015293945090926020840192169062a0983290602401602060405180830381865afa1580156103db573d6000803e3d6000fd5b505050506040513d601f19601f820116820180604052508101906103ff9190610c1a565b8152600154604051632c25780f60e11b81526001600160a01b0388811660048301526020909301929091169063584af01e90602401602060405180830381865afa158015610451573d6000803e3d6000fd5b505050506040513d601f19601f820116820180604052508101906104759190610c1a565b8152600154604051631deee00d60e31b81526001600160a01b0388811660048301526020909301929091169063ef77006890602401602060405180830381865afa1580156104c7573d6000803e3d6000fd5b505050506040513d601f19601f820116820180604052508101906104eb9190610c1a565b81524260208083019190915260409182018490526001600160a01b0387166000818152600280845290849020855181559285015160018401558484015190830155606084015160038301556080840151600483015560a090930151600590910155517f5b88a2e3fc1a53234357ab78c104df11c33ccfa79886793654565ad70b8afb6e906105859086908590918252602082015260400190565b60405180910390a2818111156105da5760408051838152602081018390526001600160a01b038616917f0523447c6f08539198ff81fbfbe061546a834b64263c20d00b88a1bdc41f2506910160405180910390a25b50505050565b6105e8610aeb565b600382111561062d5760405162461bcd60e51b815260206004820152600c60248201526b24b73b30b634b2103a34b2b960a11b60448201526064015b60405180910390fd5b60009182526003602052604090912055565b60015460405162504c1960e11b81526001600160a01b038381166004830152600092839291169062a0983290602401602060405180830381865afa15801561068b573d6000803e3d6000fd5b505050506040513d601f19601f820116820180604052508101906106af9190610c1a565b600154604051632c25780f60e11b81526001600160a01b0386811660048301529293506000929091169063584af01e90602401602060405180830381865afa1580156106ff573d6000803e3d6000fd5b505050506040513d601f19601f820116820180604052508101906107239190610c1a565b600154604051631deee00d60e31b81526001600160a01b0387811660048301529293506000929091169063ef77006890602401602060405180830381865afa158015610773573d6000803e3d6000fd5b505050506040513d601f19601f820116820180604052508101906107979190610c1a565b9050826000036107ac57506000949350505050565b6000603284116107bc57836107bf565b60325b905060006107ce600285610c49565b905060288111156107dd575060285b60006107ea600585610c49565b90506000866107fa876064610c49565b6108049190610c60565b905060006064610815600a84610c49565b61081f9190610c60565b905060008161082e8688610c82565b6108389190610c82565b9050838111156108535761084c8482610c95565b9050610857565b5060005b606481116108655780610868565b60645b9b9a5050505050505050505050565b600360008181526020919091527fcbc4e5fb02c3d1de23a9f1e014b4d2ee5aeaea9505df5e855c9210bf472495af5482106108b457506003919050565b600260005260036020527fc3a24b0501bd2c13a7e57f2db4369ec4c223447539fc0724a9d55ac4a06ebd4d5482106108ee57506002919050565b600160005260036020527fa15bc60c955c405d20d9149c709e2460f1c2d9a497496a7f46004d1772c3054c54821061092857506001919050565b506000919050565b610938610aeb565b6109426000610b18565b565b600061094f8261063f565b92915050565b606081600303610983575050604080518082019091526008815267506c6174696e756d60c01b602082015290565b816002036109ab57505060408051808201909152600481526311dbdb1960e21b602082015290565b816001036109d557505060408051808201909152600681526529b4b63b32b960d11b602082015290565b505060408051808201909152600681526542726f6e7a6560d01b602082015290565b610a306040518060c001604052806000815260200160008152602001600081526020016000815260200160008152602001600081525090565b506001600160a01b0316600090815260026020818152604092839020835160c08101855281548152600182015492810192909252918201549281019290925260038101546060830152600481015460808301526005015460a082015290565b600080610a9b8361063f565b9050610aa681610877565b9392505050565b610ab5610aeb565b6001600160a01b038116610adf57604051631e4fbdf760e01b815260006004820152602401610624565b610ae881610b18565b50565b6000546001600160a01b031633146109425760405163118cdaa760e01b8152336004820152602401610624565b600080546001600160a01b038381166001600160a01b0319831681178455604051919092169283917f8be0079c531659141344cd1fd0a4f28419497f9722a3daafe3b4186f6b6457e09190a35050565b600060208284031215610b7a57600080fd5b81356001600160a01b0381168114610aa657600080fd5b60008060408385031215610ba457600080fd5b50508035926020909101359150565b600060208284031215610bc557600080fd5b5035919050565b600060208083528351808285015260005b81811015610bf957858101830151858201604001528201610bdd565b506000604082860101526040601f19601f8301168501019250505092915050565b600060208284031215610c2c57600080fd5b5051919050565b634e487b7160e01b600052601160045260246000fd5b808202811582820484141761094f5761094f610c33565b600082610c7d57634e487b7160e01b600052601260045260246000fd5b500490565b8082018082111561094f5761094f610c33565b8181038181111561094f5761094f610c3356fea2646970667358221220d3187bb30794d0ec023b427e4ebe7f75fad5aa43ece8bee3061d477ee0ffbf2264736f6c63430008140033",
  "linkReferences": {},
  "deployedLinkReferences": {}
}