{
  "_format": "hh-sol-artifact-1",
  "contractName": "SocialPosts",
  "sourceName": "contracts/SocialPosts.sol",
  "abi": [
    {
      "inputs": [
        {
          "internalType": "address",
          "name": "_moderator",
          "type": "address"
        }
      ],
      "stateMutability": "nonpayable",
      "type": "constructor"
    },
    {
      "inputs": [
        {
          "internalType": "address",
          "name": "owner",
          "type": "address"
        }
      ],
      "name": "OwnableInvalidOwner",
      "type": "error"
    },
    {
      "inputs": [
        {
          "internalType": "address",
          "name": "account",
          "type": "address"
        }
      ],
      "name": "OwnableUnauthorizedAccount",
      "type": "error"
    },
    {
      "anonymous": false,
      "inputs": [
        {
          "indexed": true,
          "internalType": "address",
          "name": "previousOwner",
          "type": "address"
        },
        {
          "indexed": true,
          "internalType": "address",
          "name": "newOwner",
          "type": "address"
        }
      ],
      "name": "OwnershipTransferred",
      "type": "event"
    },
    {
      "anonymous": false,
      "inputs": [
        {
          "indexed": true,
          "internalType": "uint256",
          "name": "id",
          "type": "uint256"
        },
        {
          "indexed": true,
          "internalType": "address",
          "name": "author",
          "type": "address"
        },
        {
          "indexed": false,
          "internalType": "string",
          "name": "content",
          "type": "string"
        }
      ],
      "name": "PostCreated",
      "type": "event"
    },
    {
      "anonymous": false,
      "inputs": [
        {
          "indexed": true,
          "internalType": "uint256",
          "name": "id",
          "type": "uint256"
        },
        {
          "indexed": true,
          "internalType": "address",
          "name": "moderator",
          "type": "address"
        }
      ],
      "name": "PostFlagged",
      "type": "event"
    },
    {
      "anonymous": false,
      "inputs": [
        {
          "indexed": true,
          "internalType": "uint256",
          "name": "id",
          "type": "uint256"
        },
        {
          "indexed": true,
          "internalType": "address",
          "name": "user",
          "type": "address"
        }
      ],
      "name": "PostLiked",
      "type": "event"
    },
    {
      "anonymous": false,
      "inputs": [
        {
          "indexed": true,
          "internalType": "address",
          "name": "user",
          "type": "address"
        },
        {
          "indexed": false,
          "internalType": "string",
          "name": "username",
          "type": "string"
        }
      ],
      "name": "UsernameSet",
      "type": "event"
    },
    {
      "inputs": [
        {
          "internalType": "string",
          "name": "content",
          "type": "string"
        }
      ],
      "name": "createPost",
      "outputs": [],
      "stateMutability": "nonpayable",
      "type": "function"
    },
    {
      "inputs": [
        {
          "internalType": "uint256",
          "name": "id",
          "type": "uint256"
        }
      ],
      "name": "flagFromModerator",
      "outputs": [],
      "stateMutability": "nonpayable",
      "type": "function"
    },
    {
      "inputs": [
        {
          "internalType": "uint256",
          "name": "id",
          "type": "uint256"
        }
      ],
      "name": "getPost",
      "outputs": [
        {
          "internalType": "uint256",
          "name": "",
          "type": "uint256"
        },
        {
          "internalType": "address",
          "name": "",
          "type": "address"
        },
        {
          "internalType": "string",
          "name": "",
          "type": "string"
        },
        {
          "internalType": "bool",
          "name": "",
          "type": "bool"
        },
        {
          "internalType": "uint256",
          "name": "",
          "type": "uint256"
        },
        {
          "internalType": "uint256",
          "name": "",
          "type": "uint256"
        },
        {
          "internalType": "uint256",
          "name": "",
          "type": "uint256"
        }
      ],
      "stateMutability": "view",
      "type": "function"
    },
    {
      "inputs": [
        {
          "internalType": "address",
          "name": "user",
          "type": "address"
        }
      ],
      "name": "getUserFlaggedPostCount",
      "outputs": [
        {
          "internalType": "uint256",
          "name": "",
          "type": "uint256"
        }
      ],
      "stateMutability": "view",
      "type": "function"
    },
    {
      "inputs": [
        {
          "internalType": "address",
          "name": "user",
          "type": "address"
        }
      ],
      "name": "getUserPostCount",
      "outputs": [
        {
          "internalType": "uint256",
          "name": "",
          "type": "uint256"
        }
      ],
      "stateMutability": "view",
      "type": "function"
    },
    {
      "inputs": [
        {
          "internalType": "address",
          "name": "user",
          "type": "address"
        }
      ],
      "name": "getUserPosts",
      "outputs": [
        {
          "internalType": "uint256[]",
          "name": "",
          "type": "uint256[]"
        }
      ],
      "stateMutability": "view",
      "type": "function"
    },
    {
      "inputs": [
        {
          "internalType": "address",
          "name": "user",
          "type": "address"
        }
      ],
      "name": "getUserSafePostCount",
      "outputs": [
        {
          "internalType": "uint256",
          "name": "",
          "type": "uint256"
        }
      ],
      "stateMutability": "view",
      "type": "function"
    },
    {
      "inputs": [
        {
          "internalType": "address",
          "name": "user",
          "type": "address"
        }
      ],
      "name": "getUsername",
      "outputs": [
        {
          "internalType": "string",
          "name": "",
          "type": "string"
        }
      ],
      "stateMutability": "view",
      "type": "function"
    },
    {
      "inputs": [
        {
          "internalType": "uint256",
          "name": "id",
          "type": "uint256"
        }
      ],
      "name": "likePost",
      "outputs": [],
      "stateMutability": "nonpayable",
      "type": "function"
    },
    {
      "inputs": [],
      "name": "moderator",
      "outputs": [
        {
          "internalType": "address",
          "name": "",
          "type": "address"
        }
      ],
      "stateMutability": "view",
      "type": "function"
    },
    {
      "inputs": [],
      "name": "owner",
      "outputs": [
        {
          "internalType": "address",
          "name": "",
          "type": "address"
        }
      ],
      "stateMutability": "view",
      "type": "function"
    },
    {
      "inputs": [
        {
          "internalType": "uint256",
          "name": "",
          "type": "uint256"
        }
      ],
      "name": "posts",
      "outputs": [
        {
          "internalType": "uint256",
          "name": "id",
          "type": "uint256"
        },
        {
          "internalType": "address",
          "name": "author",
          "type": "address"
        },
        {
          "internalType": "string",
          "name": "content",
          "type": "string"
        },
        {
          "internalType": "bool",
          "name": "flagged",
          "type": "bool"
        },
        {
          "internalType": "uint256",
          "name": "timestamp",
          "type": "uint256"
        },
        {
          "internalType": "uint256",
          "name": "likes",
          "type": "uint256"
        },
        {
          "internalType": "uint256",
          "name": "replies",
          "type": "uint256"
        }
      ],
      "stateMutability": "view",
      "type": "function"
    },
    {
      "inputs": [],
      "name": "renounceOwnership",
      "outputs": [],
      "stateMutability": "nonpayable",
      "type": "function"
    },
    {
      "inputs": [
        {
          "internalType": "address",
          "name": "_moderator",
          "type": "address"
        }
      ],
      "name": "setModerator",
      "outputs": [],
      "stateMutability": "nonpayable",
      "type": "function"
    },
    {
      "inputs": [
        {
          "internalType": "string",
          "name": "username",
          "type": "string"
        }
      ],
      "name": "setUsername",
      "outputs": [],
      "stateMutability": "nonpayable",
      "type": "function"
    },
    {
      "inputs": [],
      "name": "totalPosts",
      "outputs": [
        {
          "internalType": "uint256",
          "name": "",
          "type": "uint256"
        }
      ],
      "stateMutability": "view",
      "type": "function"
    },
    {
      "inputs": [
        {
          "internalType": "address",
          "name": "newOwner",
          "type": "address"
        }
      ],
      "name": "transferOwnership",
      "outputs": [],
      "stateMutability": "nonpayable",
      "type": "function"
    },
    {
      "inputs": [
        {
          "internalType": "address",
          "name": "",
          "type": "address"
        }
      ],
      "name": "userFlaggedPostCount",
      "outputs": [
        {
          "internalType": "uint256",
          "name": "",
          "type": "uint256"
        }
      ],
      "stateMutability": "view",
      "type": "function"
    },
    {
      "inputs": [
        {
          "internalType": "address",
          "name": "",
          "type": "address"
        }
      ],
      "name": "userPostCount",
      "outputs": [
        {
          "internalType": "uint256",
          "name": "",
          "type": "uint256"
        }
      ],
      "stateMutability": "view",
      "type": "function"
    },
    {
      "inputs": [
        {
          "internalType": "address",
          "name": "",
          "type": "address"
        },
        {
          "internalType": "uint256",
          "name": "",
          "type": "uint256"
        }
      ],
      "name": "userPosts",
      "outputs": [
        {
          "internalType": "uint256",
          "name": "",
          "type": "uint256"
        }
      ],
      "stateMutability": "view",
      "type": "function"
    },
    {
      "inputs": [
        {
          "internalType": "address",
          "name": "",
          "type": "address"
        }
      ],
      "name": "userSafePostCount",
      "outputs": [
        {
          "internalType": "uint256",
          "name": "",
          "type": "uint256"
        }
      ],
      "stateMutability": "view",
      "type": "function"
    },
    {
      "inputs": [
        {
          "internalType": "address",
          "name": "",
          "type": "address"
        }
      ],
      "name": "usernames",
      "outputs": [
        {
          "internalType": "string",
          "name": "",
          "type": "string"
        }
      ],
      "stateMutability": "view",
      "type": "function"
    }
  ],
  "bytecode": "0x608060405234801561001057600080fd5b5060405161131338038061131383398101604081905261002f916100d4565b338061005557604051631e4fbdf760e01b81526000600482015260240160405180910390fd5b61005e81610084565b50600880546001600160a01b0319166001600160a01b0392909216919091179055610104565b600080546001600160a01b038381166001600160a01b0319831681178455604051919092169283917f8be0079c531659141344cd1fd0a4f28419497f9722a3daafe3b4186f6b6457e09190a35050565b6000602082840312156100e657600080fd5b81516001600160a01b03811681146100fd57600080fd5b9392505050565b611200806101136000396000f3fe608060405234801561001057600080fd5b50600436106101415760003560e01c80638e53fb41116100b8578063ce43c0321161007c578063ce43c032146102ff578063d27c8a821461031f578063ed59313a14610332578063ee91877c14610345578063ef77006814610358578063f2fde38b1461038157600080fd5b80638e53fb41146102835780639a2194a91461028c578063c1d78935146102ac578063c4d14bef146102cc578063c7303c61146102ec57600080fd5b806360cd13ea1161010a57806360cd13ea1461020f578063715018a61461022f578063725009d31461023957806375bba1891461024c5780638064d1491461025f5780638da5cb5b1461027257600080fd5b8062a09832146101465780630b1e7f831461018257806338743904146101a857806340731c24146101d3578063584af01e146101e6575b600080fd5b61016f610154366004610df9565b6001600160a01b031660009081526003602052604090205490565b6040519081526020015b60405180910390f35b610195610190366004610e1b565b610394565b6040516101799796959493929190610e7a565b6008546101bb906001600160a01b031681565b6040516001600160a01b039091168152602001610179565b6101956101e1366004610e1b565b610467565b61016f6101f4366004610df9565b6001600160a01b031660009081526004602052604090205490565b61016f61021d366004610df9565b60036020526000908152604090205481565b6102376105e7565b005b610237610247366004610e1b565b6105fb565b61023761025a366004610df9565b61067b565b61016f61026d366004610eca565b6106a5565b6000546001600160a01b03166101bb565b61016f60075481565b61029f61029a366004610df9565b6106d6565b6040516101799190610ef4565b61016f6102ba366004610df9565b60056020526000908152604090205481565b61016f6102da366004610df9565b60046020526000908152604090205481565b6102376102fa366004610f4e565b610742565b61031261030d366004610df9565b610950565b6040516101799190610fff565b61023761032d366004610e1b565b6109f2565b610237610340366004610f4e565b610b93565b610312610353366004610df9565b610c88565b61016f610366366004610df9565b6001600160a01b031660009081526005602052604090205490565b61023761038f366004610df9565b610d22565b60016020819052600091825260409091208054918101546002820180546001600160a01b0390921692916103c790611012565b80601f01602080910402602001604051908101604052809291908181526020018280546103f390611012565b80156104405780601f1061041557610100808354040283529160200191610440565b820191906000526020600020905b81548152906001019060200180831161042357829003601f168201915b50505050600383015460048401546005850154600690950154939460ff9092169390925087565b600080606060008060008060008811801561048457506007548811155b6104a95760405162461bcd60e51b81526004016104a09061104c565b60405180910390fd5b6000888152600160208181526040808420815160e08101835281548152938101546001600160a01b031692840192909252600282018054918401916104ed90611012565b80601f016020809104026020016040519081016040528092919081815260200182805461051990611012565b80156105665780601f1061053b57610100808354040283529160200191610566565b820191906000526020600020905b81548152906001019060200180831161054957829003601f168201915b505050505081526020016003820160009054906101000a900460ff1615151515815260200160048201548152602001600582015481526020016006820154815250509050806000015181602001518260400151836060015184608001518560a001518660c00151975097509750975097509750975050919395979092949650565b6105ef610d60565b6105f96000610d8d565b565b60008111801561060d57506007548111155b6106295760405162461bcd60e51b81526004016104a09061104c565b60008181526001602052604081206005018054916106468361108b565b9091555050604051339082907fcf765d6f163c9b0d832e2a94f4c8e9bffd32a2c3ca5fdbb8cc67b5fe1441f41390600090a350565b610683610d60565b600880546001600160a01b0319166001600160a01b0392909216919091179055565b600260205281600052604060002081815481106106c157600080fd5b90600052602060002001600091509150505481565b6001600160a01b03811660009081526002602090815260409182902080548351818402810184019094528084526060939283018282801561073657602002820191906000526020600020905b815481526020019060010190808311610722575b50505050509050919050565b60008151116107935760405162461bcd60e51b815260206004820152601760248201527f436f6e74656e742063616e6e6f7420626520656d70747900000000000000000060448201526064016104a0565b610118815111156107d95760405162461bcd60e51b815260206004820152601060248201526f436f6e74656e7420746f6f206c6f6e6760801b60448201526064016104a0565b600780549060006107e98361108b565b90915550506007546040805160e08101825282815233602080830191825282840186815260006060850181905242608086015260a0850181905260c085018190528681526001928390529490942083518155915190820180546001600160a01b0319166001600160a01b039092169190911790559151909190600282019061087190826110f3565b5060608201516003828101805460ff1916921515929092179091556080830151600483015560a0830151600583015560c0909201516006909101553360008181526002602090815260408083208054600181018255908452828420018690559282529290925281208054916108e58361108b565b90915550503360009081526004602052604081208054916109058361108b565b9190505550336001600160a01b0316817f8e40a51278abe2f4b410c0a96ff0bdd024b22666ca334062bf72afd596984bd6846040516109449190610fff565b60405180910390a35050565b6001600160a01b038116600090815260066020526040902080546060919061097790611012565b80601f01602080910402602001604051908101604052809291908181526020018280546109a390611012565b80156107365780601f106109c557610100808354040283529160200191610736565b820191906000526020600020905b8154815290600101906020018083116109d35750939695505050505050565b6008546001600160a01b03163314610a4c5760405162461bcd60e51b815260206004820152601760248201527f4f6e6c79206d6f64657261746f722063616e20666c616700000000000000000060448201526064016104a0565b600081118015610a5e57506007548111155b610a7a5760405162461bcd60e51b81526004016104a09061104c565b60008181526001602052604090206003015460ff1615610ad35760405162461bcd60e51b8152602060048201526014602482015273141bdcdd08185b1c9958591e48199b1859d9d95960621b60448201526064016104a0565b600081815260016020818152604080842060038101805460ff191685179055909201546001600160a01b0316808452600490915291205415610b39576001600160a01b0381166000908152600460205260408120805491610b33836111b3565b91905055505b6001600160a01b0381166000908152600560205260408120805491610b5d8361108b565b9091555050604051339083907fec46b91e2919a8b607341f3527c47fc1c577c6f9591568642e365b01bbc4bb1590600090a35050565b6000815111610be45760405162461bcd60e51b815260206004820152601860248201527f557365726e616d652063616e6e6f7420626520656d707479000000000000000060448201526064016104a0565b601e81511115610c2a5760405162461bcd60e51b8152602060048201526011602482015270557365726e616d6520746f6f206c6f6e6760781b60448201526064016104a0565b336000908152600660205260409020610c4382826110f3565b50336001600160a01b03167f74d8e560d2e870c35b35dc882df2a5c96e2bf1cdb5ef6dd2f9cb433c8d04885382604051610c7d9190610fff565b60405180910390a250565b60066020526000908152604090208054610ca190611012565b80601f0160208091040260200160405190810160405280929190818152602001828054610ccd90611012565b8015610d1a5780601f10610cef57610100808354040283529160200191610d1a565b820191906000526020600020905b815481529060010190602001808311610cfd57829003601f168201915b505050505081565b610d2a610d60565b6001600160a01b038116610d5457604051631e4fbdf760e01b8152600060048201526024016104a0565b610d5d81610d8d565b50565b6000546001600160a01b031633146105f95760405163118cdaa760e01b81523360048201526024016104a0565b600080546001600160a01b038381166001600160a01b0319831681178455604051919092169283917f8be0079c531659141344cd1fd0a4f28419497f9722a3daafe3b4186f6b6457e09190a35050565b80356001600160a01b0381168114610df457600080fd5b919050565b600060208284031215610e0b57600080fd5b610e1482610ddd565b9392505050565b600060208284031215610e2d57600080fd5b5035919050565b6000815180845260005b81811015610e5a57602081850181015186830182015201610e3e565b506000602082860101526020601f19601f83011685010191505092915050565b8781526001600160a01b038716602082015260e060408201819052600090610ea490830188610e34565b951515606083015250608081019390935260a083019190915260c0909101529392505050565b60008060408385031215610edd57600080fd5b610ee683610ddd565b946020939093013593505050565b6020808252825182820181905260009190848201906040850190845b81811015610f2c57835183529284019291840191600101610f10565b50909695505050505050565b634e487b7160e01b600052604160045260246000fd5b600060208284031215610f6057600080fd5b813567ffffffffffffffff80821115610f7857600080fd5b818401915084601f830112610f8c57600080fd5b813581811115610f9e57610f9e610f38565b604051601f8201601f19908116603f01168101908382118183101715610fc657610fc6610f38565b81604052828152876020848701011115610fdf57600080fd5b826020860160208301376000928101602001929092525095945050505050565b602081526000610e146020830184610e34565b600181811c9082168061102657607f821691505b60208210810361104657634e487b7160e01b600052602260045260246000fd5b50919050565b6020808252600f908201526e125b9d985b1a59081c1bdcdd081251608a1b604082015260600190565b634e487b7160e01b600052601160045260246000fd5b60006001820161109d5761109d611075565b5060010190565b601f8211156110ee57600081815260208120601f850160051c810160208610156110cb5750805b601f850160051c820191505b818110156110ea578281556001016110d7565b5050505b505050565b815167ffffffffffffffff81111561110d5761110d610f38565b6111218161111b8454611012565b846110a4565b602080601f831160018114611156576000841561113e5750858301515b600019600386901b1c1916600185901b1785556110ea565b600085815260208120601f198616915b8281101561118557888601518255948401946001909101908401611166565b50858210156111a35787850151600019600388901b60f8161c191681555b5050505050600190811b01905550565b6000816111c2576111c2611075565b50600019019056fea2646970667358221220a8270fa1b79e829849e2c0842cb4d8abc7e6976c109e1ce4afa37b18fbecb69964736f6c63430008140033",
  "linkReferences": {},
  "deployedLinkReferences": {}
}